:020000040800F2
:100000000080002059250008F5240008F724000886
:10001000F9240008FB240008FD240008000000006B
:10002000000000000000000000000000E11C0008CB
:10003000FF24000800000000811D000801250008C1
:10004000A9250008A9250008A9250008A925000858
:10005000A9250008A9250008A9250008A925000848
:10006000A9250008A9250008A9250008A925000838
:10007000A9250008A9250008A9250008A925000828
:10008000A9250008A9250008A925000800000000EE
:10009000000000000000000000000000A92500088A
:1000A000A9250008A9250008A9250008A9250008F8
:1000B000000000000000000000000000A92500086A
:1000C000A9250008A9250008A9250008A9250008D8
:1000D000A9250008A9250008A9250008000000009E
:1000E000A9250008A9250008000000000000000064
:1000F000000000000000000000000000A92500082A
:100100000000000000000000A92500080000000019
:100110000000000000000000A92500080000000009
:10012000A9250008A9250008A9250008A925000877
:10013000A9250008000000000000000000000000E9
:1001400000000000000000000000000000000000AF
:10015000A9250008A9250008A9250008A925000847
:10016000000000000000000000000000000000008F
:10017000000000000000000000000000000000007F
:10018000A9250008A92500080000000000000000C3
:1001900000000000A9250008000000000000000089
:1001A000000000000000000000000000000000004F
:1001B000000000000000000000000000A925000869
:0801C000A9250008A92500088B
:1001D00010B5054C237833B9044B13B10448AFF381
:1001E00000800123237010BD1000002000000000DB
:1001F000F425000808B5034B1BB103490348AFF3CE
:10020000008008BD0000000014000020F425000854
:1002100053B94AB9002908BF00281CBF4FF0FF316D
:100220004FF0FF3000F072B9ADF1080C6DE904CE6B
:1002300000F006F8DDF804E0DDE9022304B07047C1
:100240002DE9F047089E04468846002B4BD18A4290
:10025000154667D9B2FA82F24AB1C2F1200701FA13
:1002600002F320FA07F7954047EA030894404FEA63
:10027000154E230CB8FBFEF71FFA85FC0EFB178802
:1002800043EA084307FB0CF1994209D9EB1807F13F
:10029000FF3080F01B81994240F21881023F2B44CD
:1002A0005B1AA4B2B3FBFEF00EFB103344EA034426
:1002B00000FB0CFCA44509D92C1900F1FF3380F098
:1002C0000781A44540F2048102382C4440EA0740EB
:1002D000A4EB0C0400271EB1D4400023C6E9004360
:1002E0003946BDE8F0878B4209D9002E00F0EB803B
:1002F0000027C6E9000138463946BDE8F087B3FA61
:1003000083F7002F47D18B4202D3824200F2FA805A
:10031000841A61EB030301209846002EE0D0C6E961
:100320000048DDE702B9FFDEB2FA82F2002A40F0AF
:100330008F80491B4FEA154E1FFA85F80127B1FB44
:10034000FEFC230C0EFB1C1143EA014308FB0CF1DD
:10035000994207D9EB180CF1FF3002D2994200F212
:10036000CD808446591AA3B2B1FBFEF00EFB1014E7
:1003700043EA044408FB00F8A04507D92C1900F112
:10038000FF3302D2A04500F2B6801846A4EB080461
:1003900040EA0C409FE7C7F1200CBB4022FA0CFE5C
:1003A0004EEA030E01FA07F420FA0CF521FA0CF3D9
:1003B0004FEA1E482543B3FBF8F92C0C08FB193310
:1003C0001FFA8EFA44EA034309FB0AF49C4202FA3C
:1003D00007F200FA07F10BD91EEB030309F1FF3016
:1003E00080F087809C4240F28480A9F10209734426
:1003F0001B1BADB2B3FBF8F008FB103345EA034416
:1004000000FB0AFAA24508D91EEB040400F1FF33F1
:100410006BD2A24569D90238744440EA0940A0FB76
:100420000289A4EB0A044C45C2464B4654D351D032
:10043000002E69D0B1EB0A0564EB030404FA0CFC4E
:10044000FD40FC404CEA0505C6E90054002747E79B
:10045000C2F1200320FA03F7954001FA02F021FAD5
:1004600003F34FEA154E3843010CB3FBFEF71FFAB6
:1004700085F80EFB173341EA034107FB08F38B4273
:1004800004FA02F407D9691807F1FF3C2FD28B4216
:100490002DD9023F2944CB1A81B2B3FBFEF00EFBEB
:1004A000103341EA034100FB08F38B4207D9691876
:1004B00000F1FF3C17D28B4215D902382944C91AE2
:1004C00040EA07473BE73746304609E70746E7E695
:1004D0001846FBE64145ABD2B8EB020A69EB0E02C7
:1004E00001381346A4E76046E9E7184695E76746F2
:1004F000D1E781467CE702382C4447E7ACF1020C97
:100500002B442FE7384608E73746E9E6704700BF37
:1005100010B504460E4B18784FF47A73B3FBF0F322
:100520000C4A1068B0FBF3F000F012FA68B90F2C17
:1005300001D901200AE0002221464FF0FF3000F0EF
:10054000D3F9034B5C60002000E0012010BD00BF28
:10055000000000200C00002008B50B4B1A6842F484
:1005600000721A601A6842F480621A601A6842F4D3
:1005700080721A60032000F0A5F90F20FFF7C8FF72
:1005800001F016FF002008BD003C0240034A11683C
:10059000034B1B780B441360704700BF783D00206D
:1005A00000000020014B1868704700BF783D002014
:1005B000494B5A6822F440325A605A6841680A43EB
:1005C0005A600268536823F480735360026853686A
:1005D000016943EA012353600268536823F04073C2
:1005E00053600268536881680B43536002689368E4
:1005F00023F40063936002689368C1680B439360BF
:10060000826A364B9A4249D00268936823F070633D
:10061000936002689368816A0B43936002689368F1
:1006200023F04053936002689368C16A0B43936060
:100630000268936823F002039360026893688169FB
:1006400043EA41039360036A002B32D10268536886
:1006500023F4006353600268D36A23F47003D36207
:100660000168CB6AC269013A43EA0253CB6202686D
:10067000936823F40073936002689368016B43EA04
:10068000412393600268936823F480639360026857
:100690009368416943EA81239360704702689368D5
:1006A00023F0706393600268936823F04053936073
:1006B000BEE70268536843F40063536002685368FE
:1006C00023F46043536001684B68426A013A43EA8D
:1006D00042334B60BFE700BF002301400100000F21
:1006E00030B310B50446036C43B1236C13F0100F04
:1006F0000AD00120002384F83C3010BD436480F808
:100700003C3001F09FFEF0E7236C23F4885323F084
:10071000020343F0020323642046FFF749FF002051
:100720006064236C23F0030343F001032364E1E7D7
:100730000120704730B482B00023019390F83C3020
:10074000012B00F0B780012380F83C300B68092BA7
:100750003ED90568EA689BB203EB43031E3B0724BE
:1007600004FA03F322EA0303EB600568EA688C6885
:100770000B8803EB43031E3B04FA03F31343EB60C4
:100780004B68062B3AD805686A6B03EB8303053B7D
:100790001F2404FA03F322EA03036B6305686A6B00
:1007A0004B6803EB8303053B0C8804FA03F3134304
:1007B0006B630268404B9A4250D002683E4B9A42AB
:1007C00055D0002380F83C30184602B030BC70474A
:1007D00005682A699BB203EB4303072404FA03F379
:1007E00022EA03032B6105682A698C680B8803EBF6
:1007F000430304FA03F313432B61C1E70C2B16D810
:1008000005682A6B03EB8303233B1F2404FA03F3DD
:1008100022EA03032B6305682A6B4B6803EB83030F
:10082000233B0C8804FA03F313432B63C1E70568E9
:10083000EA6A03EB8303413B1F2404FA03F322EA31
:100840000303EB620568EA6A4B6803EB8303413BF1
:100850000C8804FA03F31343EB62AAE70B68122B2C
:10086000ABD1164A536843F480035360A5E70B6885
:10087000103B012BA5D8114A536843F40003536081
:100880000B68102B9DD10E4B1B6802F1467202F5CE
:100890002E3202F28332A2FB03239B0C03EB830371
:1008A0005A00019202E0019B013B0193019B002B46
:1008B000F9D186E7022088E70020014000230140AB
:1008C0000C000020074AD36823F4E0631B041B0CD0
:1008D000000200F4E060184340F0BF6040F40030D4
:1008E000D060704700ED00E030B4174BDB68C3F315
:1008F0000223C3F10704042C28BF04241D1D062D68
:1009000018D9033B4FF0FF3505FA04F421EA04013E
:10091000994005FA03F322EA0303194300280BDB8D
:100920000901C9B200F1604000F5614080F8001390
:1009300030BC70470023E5E700F00F000901C9B2A1
:10094000024B1954F4E700BF00ED00E014ED00E0A5
:100950000138B0F1807F0AD2064B5860064AF02178
:1009600082F823100020986007221A607047012047
:10097000704700BF10E000E000ED00E0042805D063
:10098000054A136823F0040313607047024A136892
:1009900043F004031360704710E000E000230F2BC6
:1009A00000F2BA80F0B482B074E0846806EA040C05
:1009B000CC68BC4044EA0C048460446824EA020227
:1009C0004C68C4F300149C4014434460C268164051
:1009D0008A68BA403243C2604A6812F0805F56D0DB
:1009E000002201924D4A546C44F480445464526C89
:1009F00002F480420192019A9C08A61C484A52F8CF
:100A0000267003F0030296000F22B24027EA020785
:100A1000444A904279D002F58062904277D002F544
:100A2000806290426FD00722B2403A4302343C4E7B
:100A300046F824203C4A1468EA4302EA04064F6858
:100A400017F4803F01D045EA0406374C26606468FD
:100A500002EA04064F6817F4003F01D045EA040695
:100A6000314C6660A46802EA04064F6817F4801FE0
:100A700001D045EA04062C4CA660E46822404E688A
:100A800016F4001F01D045EA0402274CE26001334E
:100A90000F2B3ED801229A400C6804EA0205AA42B4
:100AA000F5D14C68022C01D0122C10D1DE0808368A
:100AB00050F826C003F00704A7000F24BC402CEA1E
:100AC000040C0C69BC4044EA0C0440F8264004685D
:100AD0005F000326BE40F64306EA040C4C6804F0AF
:100AE0000304BC4044EA0C0404604C6804F1FF3C7D
:100AF000BCF1010F7FF659AF112C3FF456AF122C09
:100B00007FF464AF51E702228EE700228CE70122D6
:100B10008AE702B0F0BC7047704700BF003802405F
:100B20000038014000000240003C014012B90904B5
:100B30008161704781617047264B9B6803F00C030D
:100B4000042B44D0082B01D0234870472DE9F04BEB
:100B5000204B5A6802F03F025B6813F4800F13D0F9
:100B60001C4B5968C1F3881100231C48A1FB0001EC
:100B7000FFF74EFB174B5B68C3F3014301335B0088
:100B8000B0FBF3F0BDE8F08B124B5B68C3F3881346
:100B90001E4600275C010025E41A65EB0705A90144
:100BA00041EA9461A001001B61EB0501CB0043EA1F
:100BB0005073C400A01943EB07018B0243EA905322
:100BC0008402204619460023FFF722FBD2E70348A0
:100BD000704700BF003802400024F40040787D01D7
:100BE000002800F09D8070B504464F4B1B6803F051
:100BF0000F038B4209D2CBB24B4A1370136803F038
:100C00000F038B4201D0012070BD236813F0020F47
:100C100017D013F0040F04D0444A936843F4E05310
:100C20009360236813F0080F04D0404A936843F49C
:100C3000604393603D4A936823F0F003A068034348
:100C400093600D46236813F0010F32D06368012BC7
:100C500021D09A1E012A25D9344A126812F0020FB7
:100C600060D032498A6822F0030213438B60FFF799
:100C700099FC06462D4B9B6803F00C036268B3EBAE
:100C8000820F16D0FFF78EFC801B41F2883398420A
:100C9000F0D90320B8E7254A126812F4003FE0D1EA
:100CA0000120B1E7214A126812F0007FD9D101205A
:100CB000AAE71D4B1B6803F00F03AB4209D9EAB248
:100CC000194B1A701B6803F00F03AB4201D00120CF
:100CD0009AE7236813F0040F06D0144A936823F4AC
:100CE000E053E1680B439360236813F0080F07D0CB
:100CF0000E4A936823F46043216943EAC103936079
:100D0000FFF71AFF094B9B68C3F30313084AD35C30
:100D1000D840084B18600F20FFF7FAFB002073E75C
:100D20000120704701206FE7003C0240003802407C
:100D3000202600080C000020014B1868704700BFF7
:100D40000C00002008B5FFF7F7FF044B9B68C3F3C6
:100D50008223034AD35CD84008BD00BF003802405C
:100D60003026000808B5FFF7E7FF044B9B68C3F384
:100D70004233034AD35CD84008BD00BF003802406C
:100D80003026000870B582B00446036813F0010FE6
:100D90003BD0A74B9B6803F00C03042B2CD0A44B37
:100DA0009B6803F00C03082B21D06368B3F5803FE8
:100DB0004FD0B3F5A02F52D09D4B1A6822F4803249
:100DC0001A601A6822F480221A606368002B50D0DF
:100DD000FFF7E8FB0546964B1B6813F4003F14D160
:100DE000FFF7E0FB401B6428F5D903208AE1904B14
:100DF0005B6813F4800FD8D08D4B1B6813F4003F51
:100E000003D06368002B00F07A81236813F0020F8F
:100E100055D0874B9B6813F00C0F3ED0844B9B68DA
:100E200003F00C03082B33D0E368002B68D0814B10
:100E300001221A60FFF7B6FB05467D4B1B6813F0D5
:100E4000020F54D1FFF7AEFB401B0228F5D9032057
:100E500058E1774A136843F480331360B5E7744B65
:100E60001A6842F480221A601A6842F480321A60CA
:100E7000ABE7FFF797FB05466D4B1B6813F4003F8C
:100E8000C3D0FFF78FFB401B6428F5D9032039E15D
:100E9000674B5B6813F4800FC6D1654B1B6813F07A
:100EA000020F04D0E368012B01D001202AE1604A3F
:100EB000136823F0F803216943EAC1031360236830
:100EC00013F0080F40D0636963B35B4B01221A60D3
:100ED000FFF768FB0546564B5B6F13F0020F33D1EB
:100EE000FFF760FB401B0228F5D903200AE1504AB6
:100EF000136823F0F803216943EAC1031360DEE7B6
:100F00004C4B00221A60FFF74DFB0546484B1B680F
:100F100013F0020FD3D0FFF745FB401B0228F5D991
:100F20000320EFE0444B00221A60FFF73BFB05462D
:100F30003F4B5B6F13F0020F06D0FFF733FB401BF4
:100F40000228F5D90320DDE0236813F0040F78D0E0
:100F5000374B1B6C13F0805F33D100230193344B6C
:100F60001A6C42F080521A641B6C03F08053019398
:100F7000019B0125314B1B6813F4807F23D0A368AC
:100F8000012B34D0052B38D0294B1A6F22F00102E7
:100F90001A671A6F22F004021A67A368002B36D072
:100FA000FFF700FB0646224B1B6F13F0020F47D1E1
:100FB000FFF7F8FA801B41F288339842F3D90320F7
:100FC000A0E00025D6E71D4A136843F48073136040
:100FD000FFF7E8FA0646194B1B6813F4807FCED161
:100FE000FFF7E0FA801B0228F5D903208AE0104AB7
:100FF000136F43F001031367CFE70D4B1A6F42F0F5
:1010000004021A671A6F42F001021A67C5E7FFF778
:10101000C9FA0646064B1B6F13F0020F10D0FFF7FC
:10102000C1FA801B41F288339842F3D9032069E06A
:101030000038024000004742800E474200700040E6
:10104000E5B9A369002B5CD0304A926802F00C022B
:10105000082A59D0022B17D02D4B00221A60FFF717
:10106000A1FA0446294B1B6813F0007F45D0FFF717
:1010700099FA001B0228F5D9032043E0234A136C98
:1010800023F080531364DCE7214B00221A60FFF742
:1010900089FA05461D4B1B6813F0007F06D0FFF749
:1010A00081FA401B0228F5D903202BE0E369226A6C
:1010B0001343626A43EA8213A26A5208013A43EA7E
:1010C0000243E26A43EA0263226B43EA02730F4A75
:1010D00053600F4B01221A60FFF764FA04460B4B72
:1010E0001B6813F0007F06D1FFF75CFA001B022893
:1010F000F5D9032006E0002004E0002002E00120F2
:1011000000E0002002B070BD0120FBE70038024083
:10111000600047422DE9F843044601680A6922F459
:101120004052C36813430B610168CA6822F4164237
:1011300022F00C0283680069034360690343E0699D
:1011400003431343CB6021684A6922F44072A369C8
:1011500013434B61E369B3F5004F60D02368B84A8D
:10116000934200F0148102F58062934200F00F81F7
:10117000FFF7E8FD00EB800000EB80006568AD0044
:10118000B0FBF5F5AF4FA7FB05356D092E01FFF755
:10119000D9FD00EB800000EB80006568AD00B0FB7E
:1011A000F5F9FFF7CFFD00EB800000EB80006568EC
:1011B000AD00B0FBF5F5A7FB05356D094FF06408F0
:1011C00008FB15952D013235A7FB05356D0905F096
:1011D000F0053544FFF7B6FD00EB800000EB800022
:1011E0006668B600B0FBF6F6FFF7ACFD00EB8000DA
:1011F00000EB800063689B00B0FBF3F0A7FB0030BE
:10120000400908FB10684FEA081808F13208A7FBEC
:101210000837C7F3431723682F449F600DE1236805
:10122000874A93425BD002F58062934257D0FFF722
:1012300089FD00EB800000EB800065686D00B0FB6D
:10124000F5F5804FA7FB05356D092E01FFF77AFDF7
:1012500000EB800000EB800065686D00B0FBF5F9E5
:10126000FFF770FD00EB800000EB800065686D000B
:10127000B0FBF5F5A7FB05356D094FF0640808FBD9
:101280001595ED003235A7FB05356D096D0005F4A8
:10129000F8753544FFF756FD00EB800000EB800049
:1012A00066687600B0FBF6F6FFF74CFD00EB8000B9
:1012B00000EB800063685B00B0FBF3F3A7FB032344
:1012C0005B0908FB13684FEAC80808F13208A7FB5E
:1012D0000837C7F3421723682F449F60ADE0FFF73C
:1012E00041FD00EB800000EB800065686D00B0FB05
:1012F000F5F5544FA7FB05356D092E01FFF732FDBB
:1013000000EB800000EB800065686D00B0FBF5F934
:10131000FFF728FD00EB800000EB800065686D00A2
:10132000B0FBF5F5A7FB05356D094FF0640808FB28
:101330001595ED003235A7FB05356D096D0005F4F7
:10134000F8753544FFF70EFD00EB800000EB8000E0
:1013500066687600B0FBF6F6FFF704FD00EB800050
:1013600000EB800063685B00B0FBF3F3A7FB032393
:101370005B0908FB13684FEAC80808F13208A7FBAD
:101380000837C7F3421723682F449F6055E0FFF7E3
:10139000E9FC00EB800000EB80006568AD00B0FB6D
:1013A000F5F5284FA7FB05356D092E01FFF7DAFC8F
:1013B00000EB800000EB80006568AD00B0FBF5F944
:1013C000FFF7D0FC00EB800000EB80006568AD000B
:1013D000B0FBF5F5A7FB05356D094FF0640808FB78
:1013E00015952D013235A7FB05356D0905F0F00582
:1013F0003544FFF7B7FC00EB800000EB8000666827
:10140000B600B0FBF6F6FFF7ADFC00EB800000EB9A
:10141000800063689B00B0FBF3F0A7FB003040093D
:1014200008FB10684FEA081808F13208A7FB0837D4
:10143000C7F3431723682F449F60BDE8F88300BFBC
:10144000001001401F85EB5158B310B5044690F8C9
:1014500039300BB3242384F839302268D36823F45D
:101460000053D3602046FFF755FE2268136923F42A
:10147000904313612268536923F02A035361226861
:10148000D36843F40053D3600020E063202384F842
:10149000393084F83A3010BD80F8383001F000F867
:1014A000D8E701207047842801D00330704700201E
:1014B000704708B500F0C8F9002008BDF0B585B048
:1014C0000F46446805680669B0F90800FFF7EBFFAE
:1014D00003AB019300903B46B2B22946204600F090
:1014E00081F9012802D1039805B0F0BD0020FBE787
:1014F00008B5034600B90123184600F0E7FA0020BA
:1015000008BD08B500F08EFB012801D000F06AFC90
:1015100008BD00F1080343604FF0FF328260C360F2
:101520000361002303607047002303617047436831
:101530004B609A688A609A68516099600861036894
:1015400001330360704730B40D68B5F1FF3F02D03E
:1015500000F1080202E0026904E01A4653681C68C0
:10156000AC42FAD953684B6099608A605160086157
:1015700003680133036030BC7047036942688168C7
:1015800091608268416851605A68824205D00022A9
:101590000261186801381860704782685A60F6E77F
:1015A000074B9B6A1B6833B1054B9A6AD268D268B5
:1015B0005268DA627047024B4FF0FF32DA627047CE
:1015C0002C00002010B50446006B00F075FD20468D
:1015D00000F072FD10BD2DE9F04780469946089D48
:1015E000099F0A9C266B02F18042013A06EB8206B3
:1015F00026F0070600230F2B07D8C85CE21882F8F4
:101600003400CA5C0AB10133F5E7002384F84330A3
:10161000062D00D90625E56265644FF0000AC4F87E
:1016200048A0201DFFF780FF04F11800FFF77CFFA2
:101630002461C5F10705A5616462C4F84CA084F873
:1016400050A04A464146304600F030FB206007B1CA
:101650003C60BDE8F087000070B5002407E004EBB3
:101660008402930010481844FFF753FF0134062CFE
:10167000F5D90E4C04F1BC063046FFF74AFF04F1E1
:10168000D0052846FFF745FF04F11400FFF741FF9E
:1016900004F1E400FFF73DFF2046FFF73AFFA662A2
:1016A000C4F8F85070BD00BF5C0000202C00002082
:1016B00038B5054600F026FB264BD3F8FC20013256
:1016C000C3F8FC20D3F8003173B1224BD3F80431B6
:1016D0008BB9204BD3F80031DA6AEB6A9A420AD808
:1016E0001C4BC3F8005106E01A4BC3F80051D3F865
:1016F000FC30012B2AD0174CD4F808310133C4F840
:101700000831EB6A01229A40D4F80C110A43C4F85C
:101710000C2104F1300003EB83039A00291D1044CF
:10172000FFF705FF00F010FBD4F804316BB1D4F8DB
:101730000031DA6AEB6A9A4207D2074B4FF08052C7
:101740001A60BFF34F8FBFF36F8F38BDFFF784FF71
:10175000D1E700BF2C00002004ED00E070B5044686
:101760000E461F4BD3F81051D3F800010430FFF799
:1017700004FF60B91A4BD3F80021D16A012202FAA2
:1017800001F1D3F80C2122EA0102C3F80C21B4F1D3
:10179000FF3F12D02C44124BD3F800315C60A542BD
:1017A00014D80F4DA86AD5F800110431FFF7CBFE0D
:1017B000EB6AA34212D9EC6210E0002EEAD008488E
:1017C000D0F800110431FFF7B2FE07E0044BD3F864
:1017D000F800D3F800110431FFF7B5FE70BD00BF6B
:1017E0002C0000202DE9F04385B0074688461546B9
:1017F0009946900000F0E6FBF8B10646542000F050
:10180000E1FB0446A8B10663D4B10023039302941C
:101810000D9B01930C9B00934B462A46414638464C
:10182000FFF7D9FE2046FFF743FF012005B0BDE8D2
:10183000F083304600F040FCE6E74FF0FF30F5E77C
:101840004FF0FF30F2E7000000B583B0174B019373
:1018500000230093802216491648FFF7C3FF012892
:1018600005D0B0F1FF3F17D003B05DF804FB4FF097
:10187000500383F31188BFF36F8FBFF34F8F0E4B6D
:101880004FF0FF32DA620122C3F804210022C3F8CC
:10189000102100F0D3FAE7E74FF0500383F31188EB
:1018A000BFF36F8FBFF34F8FFEE700BF48010020EB
:1018B000382600086D1B00082C000020034AD2F8CF
:1018C00018310133C2F81831704700BF2C000020D6
:1018D0002DE9F041404BD3F81831002B6CD13E4B31
:1018E000D3F810510135C3F81051CDB99B6A1B686C
:1018F00043B14FF0500383F31188BFF36F8FBFF3F1
:101900004F8FFEE7344B9A6AD3F8F8109962C3F808
:10191000F820D3F820210132C3F82021FFF740FE40
:101920002D4BDB6AAB423DD900242B4AD2F8003163
:10193000DB6A03EB830399000A44136B012B42D942
:10194000012440E00124244B9B6A1B6863B3224BB3
:101950009B6ADB68DE6873689D422AD306F104083F
:101960004046FFF70AFEB36A1BB106F11800FFF705
:1019700004FEF36A01229A40174FD7F80C110A436C
:10198000C7F80C2107F1300003EB83039A004146AE
:101990001044FFF7CCFDF26AD7F80031DB6A9A42B7
:1019A000D0D2D0E70024CEE70B4B4FF0FF32DA6203
:1019B000BBE7094AD362B8E7074AD2F824310133BA
:1019C000C2F824310024044BD3F8283103B1012498
:1019D0002046BDE8F08100BF2C000020394BD3F831
:1019E000183143B94FF0500383F31188BFF36F8F61
:1019F000BFF34F8FFEE770B500F084F9314BD3F899
:101A00001821013AC3F81821D3F81831002B54D10A
:101A10002C4BD3F8FC3023B9002400F095F9204674
:101A200070BD0024274B5B692BB3264D2B6ADC6805
:101A300004F11800FFF7A1FD261D3046FFF79DFDBC
:101A4000E36A01229A40D5F80C110A43C5F80C212B
:101A500005F1300003EB83039A0031461044FFF791
:101A600066FDE26AD5F80031DB6A9A42DAD30122D8
:101A7000C5F82821D6E70CB1FFF792FD114BD3F83A
:101A8000244164B1FFF724FF18B10E4B0122C3F8C3
:101A90002821013CF6D10B4B0022C3F82421094B2D
:101AA000D3F828315BB1084B4FF080521A60BFF376
:101AB0004F8FBFF36F8F0124AFE70024ADE7002401
:101AC000ABE700BF2C00002004ED00E010B5B0B182
:101AD00004460F4BD3F8183143B14FF0500383F352
:101AE0001188BFF36F8FBFF34F8FFEE7FFF7E6FE5E
:101AF00000212046FFF732FEFFF770FF38B9054B93
:101B00004FF080521A60BFF34F8FBFF36F8F10BD3D
:101B10002C00002004ED00E038B5134BD3F814314D
:101B20000BB3FFF7CBFE104BD3F8E440FFF756FFA3
:101B3000002CF2D000F0E6F80B4CD4F8F030DD6861
:101B4000281DFFF71AFDD4F8FC30013BC4F8FC3027
:101B5000D4F81431013BC4F8143100F0F5F82846EC
:101B6000FFF730FDD9E738BD2C00002008B5FFF79E
:101B7000D3FF064B1B6B012BF9D9054B4FF080525D
:101B80001A60BFF34F8FBFF36F8FF0E72C00002078
:101B900004ED00E0224BD3F8183123B1204B012291
:101BA000C3F8282170471E4A0023C2F82831D2F812
:101BB0000C31B3FA83F3DBB2C3F11F0303EB8300F1
:101BC00081000A44126B42B94FF0500383F311882D
:101BD000BFF36F8FBFF34F8FFEE710B4104A990029
:101BE000CC18A0001044446B64684463303219443C
:101BF00088000830024494420BD0094903EB830368
:101C00009A000A44536BDB68C1F800315DF8044B5D
:101C1000704761680248142202FB03025163ECE73B
:101C20002C000020064BD3F804313BB1044BD3F811
:101C300018310BB100207047022070470120704717
:101C40002C0000200B4B1B68B3F1FF3F08D04FF076
:101C5000500383F31188BFF36F8FBFF34F8FFEE7FD
:101C60004FF0500383F31188BFF36F8FBFF34F8F93
:101C7000FEE700BF0800002006480068006880F307
:101C8000088862B661B6BFF34F8FBFF36F8F00DF76
:101C900000BF000008ED00E0DFF80C00016841F42F
:101CA000700101607047000088ED00E04FF0807324
:101CB00040F8043C21F0010140F8081C054B40F8B5
:101CC0000C3C40F8202C6FF0020340F8243C4438D0
:101CD000704700BF451C0008000000000000000025
:101CE000074B19680868B0E8F04F80F30988BFF324
:101CF0006F8F4FF0000080F311887047AFF30080C2
:101D00002C0100204FF0500383F31188BFF36F8F35
:101D1000BFF34F8F0A4A136801331360012B00D0C1
:101D20007047084B1B6813F0FF0FF9D04FF05003BA
:101D300083F31188BFF36F8FBFF34F8FFEE700BFB0
:101D40000800002004ED00E0094B1B6843B94FF088
:101D5000500383F31188BFF36F8FBFF34F8FFEE7FC
:101D6000013B034A13600BB983F31188704700BF2E
:101D7000080000200000000000000000000000003B
:101D8000EFF30980BFF36F8F154B1A681EF0100F29
:101D900008BF20ED108A20E9F04F10604DF8043D97
:101DA0004FF0500080F31188BFF34F8FBFF36F8F58
:101DB000FFF7F0FE4FF0000080F3118808BC1968AF
:101DC0000868B0E8F04F1EF0100F08BFB0EC108AA2
:101DD00080F30988BFF36F8F704700BFAFF30080B7
:101DE0002C01002008B54FF0500383F31188BFF396
:101DF0006F8FBFF34F8FFFF76BFD18B1034B4FF0A1
:101E000080521A60002383F3118808BD04ED00E0BE
:101E1000064B1B68064AA2FB03239B09013B054AAC
:101E20001360054B07221A60704700BF0C000020AA
:101E3000D34D621014E000E010E000E0314B1A686E
:101E4000314B9A420DD02F4B1A68304B9A4211D128
:101E50004FF0500383F31188BFF36F8FBFF34F8FA1
:101E6000FEE74FF0500383F31188BFF36F8FBFF38A
:101E70004F8FFEE700B583B0254B1A78D2B201929E
:101E8000FF221A701B78DBB28DF803309DF8033007
:101E900003F050031F4A1370072353609DF803306B
:101EA00013F0800F0AD01B4A5368013B53609DF822
:101EB00003305B00DBB28DF80330EFE7154A53685F
:101EC0001B0203F4E0635360019BDBB2104A137002
:101ED000114B1A6842F470021A601A6842F070429C
:101EE0001A60FFF795FF0D4B00221A60FFF7D4FE32
:101EF0000B4A136843F040431360FFF7BDFEFFF742
:101F0000A1FE00BF00ED00E071C20F4170C20F41A1
:101F100000E400E05801002020ED00E0080000206F
:101F200034EF00E0104A12F0070F1AD0D11D21F053
:101F30000701C1F5705313440A460C490A6000209A
:101F400048601344083B23F007038B605860186017
:101F5000981A50601360C86008614FF000434B61ED
:101F600070474FF47053E8E77801002060010020CB
:101F700010B4134B1A6882421BD359685C18844210
:101F800003D1406801445960184641684418A24290
:101F900013D10B4CA468A2420DD052681144416089
:101FA0001A6812680260984200D018605DF8044B0D
:101FB00070471346DEE70460F5E70260F3E700BF11
:101FC0006001002070B50446FFF778FC394B9B6830
:101FD000BBB1384B5B691C4262D1ACB1083414F020
:101FE000070F11D024F00704083404F007035BB195
:101FF0004FF0500383F31188BFF36F8FBFF34F8F00
:10200000FEE7FFF78FFFE4E7002C4BD0294B1B695D
:10201000A34249D3274B1D6801E02B4615466A6849
:10202000A24202D22A68002AF7D1224A9268AA4222
:102030003CD01E6808362A681A606B681B1B102B80
:1020400010D9281910F0070F08D04FF0500383F370
:102050001188BFF36F8FBFF34F8FFEE743606C6053
:10206000FFF786FF6968134A13695B1A1361D26828
:10207000934201D20F4AD3600E4B5B690B436B60F6
:1020800000232B60FFF7AAFC16F0070F10D04FF0CB
:10209000500383F31188BFF36F8FBFF34F8FFEE7B9
:1020A0000026EFE70026EDE70026EBE70026E9E74C
:1020B000304670BD6001002080B338B50446A0F101
:1020C000080550F8042C164949690A4208D14FF016
:1020D000500383F31188BFF36F8FBFF34F8FFEE779
:1020E00050F8080C40B14FF0500383F31188BFF350
:1020F0006F8FBFF34F8FFEE722EA010244F8042CF2
:10210000FFF7DCFB54F8041C054A13690B44136108
:102110002846FFF72DFFFFF761FC38BD704700BF71
:10212000600100202DE9F04188B000240094364B76
:102130001A6B42F001021A631A6B02F0010200925C
:10214000009A01941A6B42F002021A631A6B02F0B1
:1021500002020192019A02941A6B42F004021A637D
:102160001B6B03F004030293029B284D2246C021FF
:102170002846FEF7DBFC264E22464FF4007130461F
:10218000FEF7D4FC012703974FF00208CDF810802A
:1021900005940694CDF81C8003A92846FEF7FEFBA3
:1021A000302303930494059403A92846FEF7F6FB15
:1021B000C023039304970594069403A92846FEF7C9
:1021C000EDFB4FF4E0430393CDF810800594032317
:1021D00006930523079303A90E48FEF7DFFB802330
:1021E00003930494059403A93046FEF7D7FB4FF4FC
:1021F0000073039304970594069403A93046FEF7F1
:10220000CDFB08B0BDE8F08100380240000002407C
:10221000000802400004024008B50120FFF768F9F9
:10222000FBE7FEE700B585B01448154B03600023BB
:1022300043608360036183610362C362114A826207
:10224000C3600122C26103634261FEF749FA60B9CB
:102250000123009301930023029369460748FEF788
:1022600069FA30B905B05DF804FBF1210648FFF7C3
:10227000D8FFFB210448FFF7D4FF00BF803D0020BA
:10228000002001400100000F4026000808B50B485F
:102290000B4B03604FF4E133436000238360C36062
:1022A00003610C2242618361C361FFF7CDF800B97D
:1022B00008BD4FF487710348FFF7B3FFC83D002006
:1022C000004400404026000800B595B0002300936C
:1022D000234A116C41F080511164126C02F080525B
:1022E0000092009A01931F4A116841F44041116025
:1022F000126802F440420192019A022207920122DE
:102300000A9210220B920D9307A8FEF73BFDF0B93D
:102310000F2302930021039104910591069102A8D5
:10232000FEF75EFCB8B9FEF707FD0F4BA3FB0030CC
:102330008009FEF70DFB0420FEF720FB00220F2191
:102340004FF0FF30FEF7D0FA15B05DF804FBBE2168
:102350000648FFF766FFCC210448FFF762FF00BF85
:102360000038024000700040D34D62104026000843
:1023700000B587B0FEF7F0F8FFF7A6FFFFF7D2FE33
:10238000FFF750FFFFF782FF01AC074D0FCD0FC4E1
:102390002B682360002101A8FFF790F8034B186019
:1023A000FFF787F8FEE700BF0C2600087C3D002001
:1023B00010B582B000240094214B5A6C42F4804244
:1023C0005A645A6C02F480420092009A01941A6C8A
:1023D00042F080521A641B6C03F080530193019BFE
:1023E0000320FEF76FFA224621466FF00B00FEF73E
:1023F0007BFA224621466FF00A00FEF775FA224664
:1024000021466FF00900FEF76FFA224621466FF071
:102410000400FEF769FA224621466FF00300FEF73A
:1024200063FA22460F216FF00100FEF75DFA2246A3
:102430000F214FF0FF30FEF757FA02B010BD00BF7A
:10244000003802400268134B9A4200D0704730B502
:1024500087B00024009403F58C335A6C42F48072E8
:102460005A645B6C03F480730093009B0223019316
:1024700003250295039401A90748FEF78FFA01236B
:1024800001930295039401A90448FEF787FA07B067
:1024900030BD00BF002001400000024000040240A7
:1024A0000268114B9A4200D0704700B587B00023F4
:1024B00000930E4B1A6C42F400321A641B6C03F446
:1024C00000330093009B0C2301930223029301230A
:1024D0000393032304930723059301A90448FEF7FC
:1024E0005DFA07B05DF804FB00440040003802408C
:1024F000000002407047FEE7FEE7FEE7FEE7704798
:1025000008B5FEF743F8FEF7FCFF08BD0F49D1F808
:10251000883043F47003C1F888300D4B1A6842F0DC
:1025200001021A60002098601A6822F0847222F476
:1025300080321A60074A5A601A6822F480221A60B0
:10254000D8604FF000638B60704700BF00ED00E083
:102550000038024010300024DFF834D0002103E0BE
:102560000C4B5B58435004310B480C4B42189A42B9
:10257000F6D30B4A02E0002342F8043B094B9A428F
:10258000F9D3FFF7C3FF00F011F8FFF7F1FE704732
:10259000008000206C2600080000002010000020B1
:1025A00010000020083E0020FEE7000070B50D4E30
:1025B0000D4CA41BA4100025A54209D10B4E0C4CB8
:1025C00000F018F8A41BA4100025A54205D170BD89
:1025D00056F8253098470135EEE756F825309847EC
:1025E0000135F2E764260008642600086426000826
:1025F00068260008F8B500BFF8BC08BC9E467047C6
:0C260000F8B500BFF8BC08BC9E4670474F
:10260C0050260008192200080000000000000000FD
:10261C008000000000000000000000000102030424
:10262C0006070809000000000102030449444C4558
:10263C00000000002E2E2F5372632F6D61696E2ED9
:10264C006300000064656661756C745461736B00A3
:08265C00E4DBFF7F0100000038
:04266400F501000874
:04266800D101000894
:10266C000100000010000000AAAAAAAA0024F4008D
:040000050800255971
:00000001FF
