:020000040800F2
:1000000000800120813E0008493D00084B3D00086A
:100010004D3D00084F3D0008513D00080000000024
:100020000000000000000000000000008130000817
:10003000533D00080000000021310008553D000834
:10004000D13E0008D13E0008D13E0008D13E000854
:10005000D13E0008D13E0008D13E0008D13E000844
:10006000D13E0008D13E0008D13E0008D13E000834
:10007000D13E0008D13E0008D13E0008D13E000824
:10008000D13E0008D13E0008D13E0008D13E000814
:10009000D13E0008D13E0008D13E0008D13E000804
:1000A000D13E0008D13E0008D13E0008D13E0008F4
:1000B000D13E0008D13E0008D13E0008D13E0008E4
:1000C000D13E0008D13E0008D13E0008D13E0008D4
:1000D000D13E0008D13E0008D13E0008D13E0008C4
:1000E000D13E0008D13E0008D13E0008D13E0008B4
:1000F000D13E0008D13E0008D13E0008D13E0008A4
:10010000D13E0008D13E0008D13E0008D13E000893
:10011000D13E0008D13E0008D13E0008D13E000883
:10012000D13E0008D13E0008D13E0008D13E000873
:10013000D13E0008D13E0008D13E0008D13E000863
:10014000D13E0008D13E0008D13E0008D13E000853
:10015000D13E0008D13E0008D13E0008D13E000843
:10016000D13E0008D13E0008D13E0008D13E000833
:10017000D13E0008D13E0008D13E0008000000003A
:08018000D13E0008D13E000849
:1001900010B5054C237833B9044B13B10448AFF3C1
:1001A00000800123237010BD080000200000000023
:1001B0001C3F000808B5034B1BB103490348AFF3CC
:1001C000008008BD000000000C0000201C3F00085B
:1001D00053B94AB9002908BF00281CBF4FF0FF31AE
:1001E0004FF0FF3000F072B9ADF1080C6DE904CEAC
:1001F00000F006F8DDF804E0DDE9022304B0704702
:100200002DE9F047089E04468846002B4BD18A42D0
:10021000154667D9B2FA82F24AB1C2F1200701FA53
:1002200002F320FA07F7954047EA030894404FEAA3
:10023000154E230CB8FBFEF71FFA85FC0EFB178842
:1002400043EA084307FB0CF1994209D9EB1807F17F
:10025000FF3080F01B81994240F21881023F2B440D
:100260005B1AA4B2B3FBFEF00EFB103344EA034466
:1002700000FB0CFCA44509D92C1900F1FF3380F0D8
:100280000781A44540F2048102382C4440EA07402B
:10029000A4EB0C0400271EB1D4400023C6E90043A0
:1002A0003946BDE8F0878B4209D9002E00F0EB807B
:1002B0000027C6E9000138463946BDE8F087B3FAA1
:1002C00083F7002F47D18B4202D3824200F2FA809B
:1002D000841A61EB030301209846002EE0D0C6E9A2
:1002E0000048DDE702B9FFDEB2FA82F2002A40F0F0
:1002F0008F80491B4FEA154E1FFA85F80127B1FB85
:10030000FEFC230C0EFB1C1143EA014308FB0CF11D
:10031000994207D9EB180CF1FF3002D2994200F252
:10032000CD808446591AA3B2B1FBFEF00EFB101427
:1003300043EA044408FB00F8A04507D92C1900F152
:10034000FF3302D2A04500F2B6801846A4EB0804A1
:1003500040EA0C409FE7C7F1200CBB4022FA0CFE9C
:100360004EEA030E01FA07F420FA0CF521FA0CF319
:100370004FEA1E482543B3FBF8F92C0C08FB193350
:100380001FFA8EFA44EA034309FB0AF49C4202FA7C
:1003900007F200FA07F10BD91EEB030309F1FF3056
:1003A00080F087809C4240F28480A9F10209734466
:1003B0001B1BADB2B3FBF8F008FB103345EA034456
:1003C00000FB0AFAA24508D91EEB040400F1FF3332
:1003D0006BD2A24569D90238744440EA0940A0FBB7
:1003E0000289A4EB0A044C45C2464B4654D351D073
:1003F000002E69D0B1EB0A0564EB030404FA0CFC8F
:10040000FD40FC404CEA0505C6E90054002747E7DB
:10041000C2F1200320FA03F7954001FA02F021FA15
:1004200003F34FEA154E3843010CB3FBFEF71FFAF6
:1004300085F80EFB173341EA034107FB08F38B42B3
:1004400004FA02F407D9691807F1FF3C2FD28B4256
:100450002DD9023F2944CB1A81B2B3FBFEF00EFB2B
:10046000103341EA034100FB08F38B4207D96918B6
:1004700000F1FF3C17D28B4215D902382944C91A22
:1004800040EA07473BE73746304609E70746E7E6D5
:100490001846FBE64145ABD2B8EB020A69EB0E0207
:1004A00001381346A4E76046E9E7184695E7674632
:1004B000D1E781467CE702382C4447E7ACF1020CD7
:1004C0002B442FE7384608E73746E9E6704700BF78
:1004D000034613F8012B002AFBD1181A0138704784
:1004E00010B50446094B1868094BA3FB003080097E
:1004F00000F0A6FB08B1012010BD002221464FF0FC
:10050000FF3000F069FB0020F6E700BF0400002088
:10051000D34D621010B5094A136843F48073136019
:10052000032000F047FB0F20FFF7DAFF10B1012492
:10053000204610BD044603F015FBF9E700200240F9
:10054000024A136801331360704700BFC40E0020D5
:10055000014B1868704700BFC40E002030B583B04F
:1005600000230193002800F0F5800446436D03B397
:1005700023689A6812F0005F05D09A6822F0204242
:1005800022F03F029A602268936813F0805F1DD1C9
:10059000936823F0104323F03F0343F080539360AC
:1005A0006D4B1B689B096D4AA2FB03239B090193BA
:1005B00009E003F01FFB0023A36584F85030D7E760
:1005C000019B013B0193019B002BF9D123689A68A1
:1005D00012F0805F40F08980626D42F01002626527
:1005E000A26D42F00102A26501209A6812F0040F88
:1005F0007DD00121626D12F0100F40F0A48000291F
:1006000040F0A180626D22F4817242F002026265C4
:100610009B6813F0010F1BD1514B9B6813F0010F26
:1006200067D001214F4A926812F0010F63D0012375
:100630000B434D4A926812F0010F5ED00122134322
:1006400006D1636849498A6822F47C1213438B609F
:10065000627E636B43EA4233E2681343A26813434A
:1006600094F8202043EA0243012A48D0A26A22B12A
:1006700002F47072E16A0A4313432168CD683C4A70
:100680002A401343CB6023689A6812F0040F3BD0D2
:1006900001219A6812F0080F38D00122B1B9AAB925
:1006A000217E94F83020520042EA8131DA6822F447
:1006B000804222F002020A43DA6094F83830012BBB
:1006C00026D02268136923F0010313612369012BEB
:1006D00030D02268136B23F00F031363636D23F094
:1006E000030343F00103636532E000207DE700214E
:1006F00080E7002196E700239AE700229FE7626ADD
:10070000013A43EA4243B1E70021C2E70022C5E7CC
:1007100021680B6923F4FF6323F00403E26B256C6B
:100720002A43656C2A43A56C2A43134343F0010313
:100730000B61CBE721680B6B23F00F03E269013AF1
:1007400013430B63CAE7636D43F010036365012035
:1007500003B030BD0120FBE704000020632D3E05FF
:100760000000045000010450000204500003045033
:1007700007C0F0FFF0B482B00022019290F8502040
:10078000012A00F010820346012280F850200268FE
:10079000926812F0040F0AD0426D42F020024265C6
:1007A0000120002283F8502002B0F0BC70474A6854
:1007B000052A09D8023A032A00F28D80DFE802F008
:1007C000028184870C224A601E684D680C683036AE
:1007D0002A0A920002F00C02B05805F01F051F27EC
:1007E000AF4020EA0700C4F38464AC402043B0501B
:1007F0001A68906810F0040F70D00120946814F00B
:10080000080F6DD0012450BB4CBB0E688C681432AD
:10081000700E800000F004001558C6F30456072738
:10082000B74025EA0705B4402C43145048691C68BA
:10083000E268C2F3C102520000FA02F20D69042D0F
:1008400050D00E68603454F82570B448384006F033
:10085000F8463243104340F0004044F82500186841
:10086000826812F0010F15D10A68CD68D0F8B04047
:10087000C2F3120624EA060405F01806A84DF54056
:100880002A40C2F312022243C0F8B020C868A54A29
:1008900090427AD00A68A4490A4200F08081A349B4
:1008A000896801F0E074A248824200F00C81A148FE
:1008B000824200F04981A048824200F05D81002020
:1008C0006FE712224A607FE718224A607CE74FF404
:1008D00080724A6078E706224A6075E700208DE75B
:1008E000002490E7206EC0F384650A68C2F3120604
:1008F0005EBBC2F3846295422CD01C68606EC0F36C
:1009000084650A68C2F3120646BBC2F3846295424C
:1009100029D01C68A06EC0F384650A68C2F3120671
:100920002EBBC2F38462954226D01C68E06EC0F3F1
:1009300084650A68C2F3120616BBC2F3846295424C
:100940008DD120F00040E06689E792FAA2F2B2FA77
:1009500082F2D0E720F000402066CEE792FAA2F2C1
:10096000B2FA82F2D3E720F000406066D1E792FA53
:10097000A2F2B2FA82F2D6E720F00040A066D4E7F5
:1009800092FAA2F2B2FA82F2D9E71D680A68C2F3BB
:10099000120696BB900E013000F01F0009288CBF94
:1009A00000200120002852D09EBB940E0134A406E2
:1009B00004F0F844B6BB900E013000F01F07012090
:1009C000B8400443C6BB920E013202F01F0202EB94
:1009D0004202120522438C681435500E800000F04C
:1009E00004002E58C2F304520727974026EA070650
:1009F00004FA02F232432A504CE792FAA2F0B0FA1B
:100A000080F0013000F01F0009288CBF0020012079
:100A1000C8E792FAA2F4B4FA84F40134A40604F00C
:100A2000F844C7E792FAA2F0B0FA80F0013000F083
:100A30001F070120B840C4E792FAA2F2B2FA82F28C
:100A4000013202F01F0202EB42021205C2E7CEB9E8
:100A5000940E0134A40604F0F844E6B9900E013077
:100A600000F01F070120B8400443F6B9900E013092
:100A700000F01F0000EB40021E3A120542F0007227
:100A80002243A8E792FAA2F4B4FA84F40134A4064B
:100A900004F0F844E1E792FAA2F0B0FA80F00130F5
:100AA00000F01F070120B840DEE792FAA2F0B0FA8A
:100AB00080F0013000F01F0000EB40021E3A1205EA
:100AC00042F00072DCE711F4000F7FF4F0AE1A6818
:100AD0001A498A4205D001F500718A4201D00020EE
:100AE0005FE644F4000411498A6822F0E07214437E
:100AF0008C60134A126892091249A1FB02129209F2
:100B000002EB42029100019102E0019A013A019246
:100B1000019A002AF9D1002043E600BF00F0FF034C
:100B2000FFFF070000007F40000008800003045022
:100B3000000052C7000084CB010000800000045078
:100B400004000020632D3E0511F0807F7FF4B3AEDA
:100B50001A6816498A4205D001F500718A4201D00F
:100B600000201EE644F080721148816821F0E07197
:100B70000A438260002014E611F4800F11D1196835
:100B80000A4A914201D000200BE644F48002084852
:100B9000816821F0E0710A438260002001E60020B4
:100BA000FFE50020FDE50220FEE500BF0000045047
:100BB00000030450074AD36823F4E0631B041B0CB2
:100BC000000200F4E060184340F0BF6040F40030E1
:100BD000D060704700ED00E030B4174BDB68C3F322
:100BE0000223C3F10704042C28BF04241D1D062D75
:100BF00018D9033B4FF0FF3505FA04F421EA04014C
:100C0000994005FA03F322EA0303194300280BDB9A
:100C10000901C9B200F1604000F5614080F800139D
:100C200030BC70470023E5E700F00F000901C9B2AE
:100C3000024B1954F4E700BF00ED00E014ED00E0B2
:100C40000138B0F1807F0AD2064B5860064AF02185
:100C500082F823100020986007221A607047012054
:100C6000704700BF10E000E000ED00E0042805D070
:100C7000054A136823F0040313607047024A13689F
:100C800043F004031360704710E000E0F0B482B05A
:100C9000002341E0D0F82CC02CEA040CC6F3C004B9
:100CA0009C4044EA0C04C46286E0062400E0002470
:100CB000B4403C430235664E46F82540654C2568F5
:100CC000D44304EA05064F6817F4803F01D042EA96
:100CD0000506604D2E606D6804EA05064F6817F43E
:100CE000003F01D042EA05065A4D6E60AD6804EA45
:100CF00005064F6817F4801F01D042EA0506554DDE
:100D0000AE60ED682C404E6816F4001F01D042EA38
:100D10000504504AD46001330A6832FA03F400F043
:100D2000938001249C402240F5D04D68022D01D0D3
:100D3000122D10D1DE08083650F826C003F0070542
:100D4000AF000F25BD402CEA050C0D69BD4045EAFA
:100D50000C0540F8265006685F000325BD40ED43B2
:100D600005EA060C4E6806F00306BE4046EA0C068D
:100D700006604E6806F1FF3CBCF1010F03D9112E4D
:100D800001D0122E11D1866805EA060CCE68BE404D
:100D900046EA0C068660466826EA040C4E68C6F3EE
:100DA00000169E4046EA0C0646604E6806F0030CAC
:100DB000BCF1030F3FF46EAFC46825408C68BC40A3
:100DC0002C43C4604C6814F0805FA4D0224C256E84
:100DD00045F001052566246E04F001040194019C90
:100DE0009D08AE1C1A4C54F8267003F00304A600AC
:100DF0000F24B44027EA0407B0F1904F3FF457AFF7
:100E0000164CA04216D004F58064A04214D004F51C
:100E10008064A04212D004F58064A04210D004F592
:100E20008064A0420ED004F58064A0423FF43DAF40
:100E300007243DE701243BE7022439E7032437E791
:100E4000042435E7052433E702B0F0BC704700BF47
:100E5000000001400004014000100240000400486E
:100E60000AB98162704781617047002859D010B576
:100E7000044690F84130002B43D0242384F84130BD
:100E80002268136823F0010313606368226823F06B
:100E9000706313612268936823F400439360E368EE
:100EA000012B33D0A368226843F404439360E368C2
:100EB000022B31D02268536843F0007343F400439F
:100EC00053602268D36823F40043D36023696269C6
:100ED0001343A169226843EA0123D360E369216ACD
:100EE00022680B4313602268136843F00103136008
:100EF00000206064202384F84130206384F842009D
:100F000010BD80F8403002F09BFEB6E7A36822686F
:100F100043F400439360CAE723684FF400625A60C9
:100F2000C8E70120704790F84130DBB2202B24D174
:100F300090F84030012B22D0012380F84030242348
:100F400080F841300268136823F0010313600268DF
:100F5000136823F480531360026813681943116007
:100F60000268136843F001031360202380F84130C6
:100F7000002380F840301846704702207047022056
:100F8000704790F84130DBB2202B22D190F84030EE
:100F9000012B20D0012380F84030242380F84130F9
:100FA0000268136823F0010313600268136823F4D6
:100FB000706343EA012111600268136843F0010382
:100FC0001360202380F84130002380F84030184619
:100FD000704702207047022070470000024B1868DB
:100FE00000F4C060704700BF00700040B0F5007FA3
:100FF0000FD01F4B1B6803F4C063B3F5806F34D070
:101000001B4A136823F4C06343F480631360002019
:101010007047174B1B6803F4C063B3F5007F22D001
:10102000134A136823F4C06343F400731360114B35
:101030001A68322303FB02F30F4AA2FB03239B0C23
:10104000013300E0013B0A4A526912F4806F01D07B
:10105000002BF7D1064B5B6913F4806F01D10020A0
:10106000704703207047002070470020704700BF82
:10107000007000400400002083DE1B4330B583B0C5
:101080000546204B9B6D13F0805F0BD0FFF7A6FF4A
:10109000B0F5007F17D0802D1FD82DD0702D2DD00A
:1010A00000211BE0174CA36D43F08053A365A36D93
:1010B00003F080530193019BFFF790FFA36D23F092
:1010C0008053A365E4E7802D03D9A02D03D9022125
:1010D00004E0002102E0012100E003210A4A136834
:1010E00023F007030B431360136803F007038B42DD
:1010F00006D0012003B030BD0221EFE70121EDE76A
:101100000020F7E70010024000200240314A9368B7
:10111000D26802F0030213F00C030AD00C2B06D0A5
:10112000042B1FD0082B20D00020014610E0012AFC
:10113000F6D1284A126812F0080F0CD1254AD2F8CD
:101140009420C2F30322244951F8221043B1002015
:101150000C2B0DD070471F4A1268C2F30312F2E73E
:101160000846F5E71D480021F2E71D480021EFE79A
:10117000184BDA6802F00302DB68C3F30213013391
:10118000022A0AD0032A1AD0B1FBF3F3114AD0681D
:10119000C0F3062000FB03F008E01048B0FBF3F3B7
:1011A0000C4AD068C0F3062000FB03F0094BDB6853
:1011B000C3F3416301335B00B0FBF3F0CAE70848B7
:1011C000B0FBF3F3034AD068C0F3062000FB03F042
:1011D000ECE700BF00100240883F00080024F40044
:1011E00000127A00002800F09082F0B583B0044627
:1011F000AC4B9D6805F00C05DE6806F0030603683D
:1012000013F0100F5DD0E5B10C2D18D0A369002BA1
:1012100000F0B780A34A136843F001031360FFF79F
:1012200097F907469F4B1B6813F0020F40F096801A
:10123000FFF78EF9C01B0228F4D9032371E2012EB7
:10124000E4D1984B1B6813F0020F03D0A369002B65
:1012500000F05E82206A934B1B6813F0080F5DD08C
:10126000904B1B6803F0F00398425ED9FFF706FF2E
:10127000002840F04F828B4B1A6842F008021A6037
:101280001A6822F0F002216A0A431A605A6822F4AE
:101290007F42E16942EA01225A60FFF737FF814B42
:1012A0009B68C3F30313804AD35C03F01F03D84049
:1012B0007E4B18600F20FFF713F90346002840F01B
:1012C0003082236813F0010F7AD0082D6FD00C2DD7
:1012D0006BD06368B3F5803F00F09180B3F5A02F29
:1012E00000F093806F4B1A6822F480321A601A68FB
:1012F00022F480221A606368002B00F09380FFF7CD
:1013000027F90746674B1B6813F4003F58D1FFF7D6
:101310001FF9C01B6428F5D9032302E2614BD3F8FF
:1013200094301B0903F0F0039EE75E4B1A6842F00D
:1013300008021A601A6822F0F002216A0A431A6051
:101340005A6822F47F42E16942EA01225A60206A27
:10135000FFF794FE0028A0D00123E2E1514B1A6868
:1013600042F008021A601A6822F0F002216A0A4369
:101370001A605A6822F47F42E16942EA01225A6007
:101380009FE7484A136823F001031360FFF7E0F872
:101390000746444B1B6813F0020F92D0FFF7D8F8B2
:1013A000C01B0228F5D90323BBE1032E91D13D4B8D
:1013B0001B6813F4003F03D06368002B00F0AC817E
:1013C000236813F0020F4FD0042D3CD00C2D38D0E1
:1013D000E368002B75D0334A136843F480731360BD
:1013E000FFF7B6F806462F4B1B6813F4806F5FD1EA
:1013F000FFF7AEF8801B0228F5D9032391E1294AB3
:10140000136843F48033136075E703F18043A3F559
:101410003C331A6842F480221A601A6842F480321F
:101420001A6068E7FFF794F807461E4B1B6813F431
:10143000003FC5D0FFF78CF8C01B6428F5D9032303
:101440006FE1022EC4D1174B1B6813F4806F03D0D9
:10145000E368002B00F06281124A536823F0F853CE
:10146000216943EA01635360236813F0080F53D0E6
:101470006369002B39D00B4AD2F8943043F0010352
:10148000C2F89430FFF764F80646064BD3F8943060
:1014900013F0020F40D1FFF75BF8801B0228F4D94C
:1014A00003233EE100100240B83F00080400002082
:1014B0009E4A536823F0F853216943EA016353605D
:1014C000D2E79A4A136823F480731360FFF740F859
:1014D0000646964B1B6813F4806FC5D0FFF738F8AB
:1014E000801B0228F5D903231BE1904AD2F89430DF
:1014F00023F00103C2F89430FFF72AF806468B4B1D
:10150000D3F8943013F0020F06D0FFF721F8801BB8
:101510000228F4D9032304E1236813F0040F7AD0DE
:10152000824B9B6D13F0805F0BD1804B9A6D42F024
:1015300080529A659B6D03F080530193019B0126B5
:1015400000E000267A4B1B6813F4807F26D0A36846
:10155000012B37D0052B3DD0744BD3F8902022F0CF
:101560000102C3F89020D3F8902022F00402C3F8BF
:101570009020A368002B3BD0FEF7EAFF07466B4B99
:10158000D3F8903013F0020F44D1FEF7E1FFC01BF7
:1015900041F288339842F2D90323C2E0644A1368C7
:1015A00043F480731360FEF7D3FF0746604B1B685C
:1015B00013F4807FCBD1FEF7CBFFC01B0228F5D9F7
:1015C0000323AEE0594AD2F8903043F00103C2F849
:1015D0009030CEE7554BD3F8902042F00402C3F888
:1015E0009020D3F8902042F00102C3F89020C0E789
:1015F000FEF7AEFF07464D4BD3F8903013F0020FC5
:1016000008D0FEF7A5FFC01B41F288339842F2D9FB
:10161000032386E066BBA36A002B00F081800C2DBB
:1016200000F08280022B29D0404B1A6822F0807291
:101630001A601B6813F0205F04D13C4AD36823F082
:101640000303D360394AD36823F0887323F48033CB
:10165000D360FEF77DFF0446344B1B6813F0007F18
:1016600051D0FEF775FF001B0228F5D9032358E07F
:101670002E4A936D23F080539365CCE72B4A136871
:1016800023F080731360FEF763FF0546274B1B684A
:1016900013F0007F06D0FEF75BFF401B0228F5D950
:1016A00003233EE0236B5A1E636B1B0243EA0213C3
:1016B000A26B120943EA4243E26A1343E26B520807
:1016C000013A43EA4253226C5208013A43EA426328
:1016D000164AD360136843F080731360D36843F0F5
:1016E0008073D360FEF734FF0446104B1B6813F081
:1016F000007F06D1FEF72CFF001B0228F5D903233B
:101700000FE000230DE000230BE001231846704793
:10171000012306E0012304E0012302E0012300E0AD
:101720000023184603B0F0BD0123FAE70010024081
:1017300000700040002800F09A8070B504464E4BBF
:101740001B6803F007038B420CD24B4A136823F04B
:1017500007030B431360136803F007038B4201D0A8
:10176000012070BD0D46236813F0010F39D0636866
:10177000032B09D0022B26D063BB404A126812F01B
:10178000020F06D10120ECE73C4A126812F0007FFC
:101790006FD03A498A6822F0030213438B60FEF748
:1017A000D7FE0646354B9B6803F00C036268B3EB2B
:1017B000820F16D0FEF7CCFE801B41F28833984290
:1017C000F0D90320CDE72D4A126812F4003FE0D192
:1017D0000120C6E7294A126812F4806FD9D101208E
:1017E000BFE7236813F0020F06D0244A936823F062
:1017F000F003A1680B4393601F4B1B6803F00703C2
:10180000AB420CD91C4A136823F007032B43136027
:10181000136803F00703AB4201D00120A1E723685E
:1018200013F0040F06D0154A936823F4E063E168CF
:101830000B439360236813F0080F07D00F4A936897
:1018400023F46053216943EAC1039360FFF75EFC10
:101850000A4B9B68C3F30313094AD35C03F01F03CD
:10186000D840084B18600F20FEF73AFE79E70120B8
:101870007047012075E700BF0020024000100240C1
:10188000B83F000804000020014B1868704700BFF3
:101890000400002008B5FFF7F7FF054B9B68C3F372
:1018A0000223044AD35C03F01F03D84008BD00BFE5
:1018B00000100240C83F000808B5FFF7E5FF054BE0
:1018C0009B68C3F3C223044AD35C03F01F03D840D0
:1018D00008BD00BF00100240C83F0008F8B55A4BD1
:1018E000DB6813F0030F18D0574BDB6803F00303DA
:1018F0000268934202D001252846F8BD002A00F074
:10190000A080514BDB68C3F302130133426893425A
:1019100001D00125F0E700251AE00368022B59D019
:10192000032B5ED0012B01D001250FE0464A12683F
:1019300012F0020F61D0444DEA6822F0730244684D
:10194000013C43EA04131343EB600025002DD3D17F
:101950000F4604463C4A136823F080631360FEF789
:10196000F7FD0646384B1B6813F0006F05D0FEF7F5
:10197000EFFD801B0228F5D90325002DBCD1002FD7
:101980003DD131490B6923F41F3323F44073A06820
:10199000E2681209520442EA002213430B612A4A08
:1019A000136843F080631360FEF7D2FD0646264BB2
:1019B0001B6813F0006F05D1FEF7CAFD801B0228DB
:1019C000F5D90325002D97D11F4A1369A1690B434F
:1019D000136191E71C4A126812F4806FABD10125A4
:1019E000B4E7194A126812F4003FA4D1164A1268EB
:1019F00012F4802F9FD10125A8E70125A6E7012F2A
:101A00000FD01148026922F0C06222F4FE42A168A0
:101A100063695B08013B5B0643EA012313430361EF
:101A2000BDE70948026922F4C00222F4FE42A1681F
:101A300023695B08013B5B0543EA01231343036110
:101A4000ADE7012558E700BF00100240F8B5514B43
:101A5000DB6813F0030F18D04E4BDB6803F0030371
:101A60000268934202D001252846F8BD002A00F002
:101A70008E80484BDB68C3F3021301334268934204
:101A800001D00125F0E700251AE00368022B59D0A8
:101A9000032B5ED0012B01D001250FE03D4A1268D7
:101AA00012F0020F61D03B4DEA6822F073024468E5
:101AB000013C43EA04131343EB600025002DD3D10E
:101AC0000F460446334A136823F080531360FEF731
:101AD0003FFD06462F4B1B6813F0005F05D0FEF755
:101AE00037FD801B0228F5D90325002DBCD1002F1E
:101AF0003DD128494B6923F41F3323F44073A06878
:101B0000E2681209520442EA002213434B61214A5F
:101B1000136843F080531360FEF71AFD06461D4B11
:101B20001B6813F0005F05D1FEF712FD801B022831
:101B3000F5D90325002D97D1164A536961690B43E6
:101B4000536191E7134A126812F4806FABD10125FB
:101B5000B4E7104A126812F4003FA4D10D4A12688B
:101B600012F4802F9FD10125A8E70125A6E7094897
:101B7000426922F0C06222F4FE42A16823695B0838
:101B8000013B5B0643EA012313434361BFE70125A1
:101B90006AE700BF001002402DE9F04182B0044620
:101BA000036813F4006F2FD0436EB3F5800F25D078
:101BB00008D9B3F5000F10D0B3F5400F40F099806D
:101BC000002610E0002B40F0948000210430FFF745
:101BD00085FE06463EB1374618E05E4AD36843F4B8
:101BE0008033D36000265B4AD2F8883023F4400368
:101BF000616E0B43C2F88830002707E000212030D7
:101C0000FFF724FF0646E5E700273E46236813F466
:101C1000805F15D0A36EB3F1807F7AD06CD9B3F119
:101C2000007F70D0B3F1407F7AD1002E7BD1494A3A
:101C3000D2F8883023F04073A16E0B43C2F888308D
:101C4000236813F4003F00F08E80424B9B6D13F02D
:101C5000805F6AD13F4B9A6D42F080529A659B6DCE
:101C600003F080530193019B4FF001083A4A136837
:101C700043F480731360FEF76BFC0546364B1B681C
:101C800013F4807F05D1FEF763FC401B0228F5D9D1
:101C90000326002E62D12F4BD3F8903013F44073FB
:101CA00016D0D4F884209A4212D02A4AD2F8903022
:101CB00023F44073D2F8901041F48031C2F89010B0
:101CC000D2F8901021F48031C2F89010C2F8903010
:101CD00013F0010F2CD1002E40F043811D4AD2F8A1
:101CE000903023F44073D4F884100B43C2F8903042
:101CF00035E001273E4689E793B90021201DFFF713
:101D0000EDFD064691E7134AD36843F48033D36070
:101D10008BE7002104F12000FFF798FE064684E7D8
:101D200001273E468CE737468AE74FF000089DE7DB
:101D3000FEF70EFC0546074BD3F8903013F0020F68
:101D4000C9D1FEF705FC401B41F288339842F2D915
:101D50000326C0E700100240007000403746B8F18B
:101D6000000F40F00081236813F0010F08D09D4A56
:101D7000D2F8883023F00303A16B0B43C2F88830FC
:101D8000236813F0020F08D0964AD2F8883023F067
:101D90000C03E16B0B43C2F88830236813F0040F87
:101DA00008D0904AD2F8883023F03003216C0B43DE
:101DB000C2F88830236813F0080F08D0894AD2F897
:101DC000883023F0C003616C0B43C2F8883023686D
:101DD00013F0100F08D0834AD2F8883023F44073F0
:101DE000A16C0B43C2F88830236813F0200F08D091
:101DF0007C4AD2F8883023F44063E16C0B43C2F88C
:101E00008830236813F4007F08D0764AD2F88830EF
:101E100023F44023E16D0B43C2F88830236813F4A8
:101E2000806F08D06F4AD2F8883023F44013216EB7
:101E30000B43C2F88830236813F0400F08D0694A7A
:101E4000D2F8883023F44053216D0B43C2F8883018
:101E5000236813F0800F08D0624AD2F8883023F448
:101E60004043616D0B43C2F88830236813F4807FD0
:101E700008D05C4AD2F8883023F44033A16D0B437C
:101E8000C2F88830236813F4005F0FD0554AD2F8A7
:101E9000883023F04063E16E0B43C2F88830E36E74
:101EA000B3F1006F65D0B3F1806F67D0236813F48E
:101EB000002F0FD04B4AD2F8883023F04063216FB7
:101EC0000B43C2F88830236FB3F1006F5ED0B3F1DB
:101ED000806F60D0236813F4802F0FD0414AD2F86E
:101EE000883023F04063616F0B43C2F88830636F22
:101EF000B3F1006F57D0B3F1806F59D0236813F45A
:101F0000804F0FD0374AD2F8883023F04053A16F6A
:101F10000B43C2F88830A36FB3F1805F50D0B3F1A8
:101F2000005F55D0236813F4004F08D02D4AD2F833
:101F3000883023F08043E16F0B43C2F88830236878
:101F400013F4803F09D0274AD2F8883023F00043A9
:101F5000D4F880100B43C2F88830384602B0BDE890
:101F6000F0813746FBE61F4A936D23F0805393655B
:101F7000F9E6D36843F48013D36097E70121201D6D
:101F8000FFF7ACFC002891D007468FE7D36843F4F5
:101F90008013D3609EE70121201DFFF79FFC0028DE
:101FA00098D0074696E7D36843F48013D360A5E73B
:101FB0000121201DFFF792FC00289FD007469DE7D6
:101FC0000221201DFFF78AFC0028ABD00746A9E7B5
:101FD000022104F12000FFF739FD0028A2D00746B6
:101FE000A0E700BF00100240002853D010B50446FF
:101FF0000023836290F85D30002B40D0022384F8E8
:102000005D302268136823F040031360E368B3F582
:10201000E06F39D90022B3F5706F04D0B3F5E06FEB
:1020200001D00021A162216B21B9B3F5E06F2ED957
:10203000022323636368A1680B4321690B43616931
:102040000B43A16901F400710B43E1690B43216A61
:102050000B43A06A216803430B60638B03F0040306
:10206000616A0B43616B0B43E1680B4321681343C7
:102070004B6000202066012384F85D3010BD80F89D
:102080005C3001F007FEB9E74FF48052C3E701234B
:102090002363CFE7012070472DE9F048044601682B
:1020A00083680269134342691343C2691343086892
:1020B000A24A024013430B602268536823F4405342
:1020C000E1680B435360A16922689D4B9A4201D09D
:1020D000236A1943936823F430630B4393602368A6
:1020E000984A934227D0984A934238D0974A9342CD
:1020F0004ED0974A934261D0964A934274D0904A08
:10210000934200F08A8010258D4A934200F0AA8005
:10211000E369B3F5004F00F03581082D00F2BF816F
:10212000DFE815F07F0195019F01BD01AA01BD0106
:10213000BD01BD01B40102F55842D2F8882002F079
:102140000302032A09D8DFE802F002048106012510
:10215000DAE70425D8E70825D6E71025D4E702F505
:10216000E632D2F8882002F00C020C2A0ED8DFE802
:1021700002F0070D0D0D090D0D0D6F0D0D0D0B006E
:102180000025C1E70425BFE70825BDE71025BBE70B
:1021900002F5E432D2F8882002F03002102A09D089
:1021A00005D9202A56D0302A06D10825ACE71AB91D
:1021B0000025A9E70425A7E71025A5E702F5E232E7
:1021C000D2F8882002F0C002402A09D005D9802A1E
:1021D00042D0C02A06D1082596E71AB9002593E710
:1021E000042591E710258FE702F5E032D2F8882028
:1021F00002F44072B2F5807F0BD007D9B2F5007FB0
:102200002CD0B2F5407F06D108257DE71AB900250C
:102210007AE7042578E7102576E702F5C832D2F888
:10222000882002F44062B2F5806F0BD007D9B2F576
:10223000006F15D0B2F5406F06D1082564E71AB9D2
:10224000002561E704255FE710255DE702255BE7D0
:10225000022559E7022557E7022555E7022553E7EE
:10226000022551E7082D00F21D81DFE815F00C0072
:102270001B0114001B0111001B011B011B010900A4
:102280004FF4004008E0FFF705FB28B90020D9E033
:10229000FEF73CFFF9E73048626802EB42038342F5
:1022A00000F20281B0EB023F00F20081082D66D8F7
:1022B000DFE805F005652065306565655800FFF7C6
:1022C000E9FA0025070E0602626850082B4616EB55
:1022D000000B47F1000C58466146FDF779FF0346B5
:1022E0002846A3F540711D4A914200F2E180226820
:1022F000D360A7E0560800252B46DFF864B04FF006
:10230000000C1BEB06004CF10001FDF761FF0346DA
:102310002846E6E7FEF7FAFE0025070E0602626889
:1023200050082B4616EB000B47F1000C584661464F
:10233000FDF74EFF03462846D3E700BFF369FFEFE2
:102340000080004000380140004400400048004048
:10235000004C0040005000400024F400FFFC0F003F
:10236000000024F45008002700252B4610F500003B
:1023700047F10001FDF72CFF03462846B1E7012095
:102380000023AEE7082D49D8DFE805F0051E2948EF
:10239000344848483F00FFF77DFA6268530803EB72
:1023A0004003B3FBF2F39BB20020A3F110014FF600
:1023B000EF7291427ED89AB222F00F02C3F3420329
:1023C00013432268D3603DE0FFF776FA6268530852
:1023D00003EB4003B3FBF2F39BB20020E5E7626836
:1023E000530803F1F47303F59043B3FBF2F39BB28C
:1023F0000020DAE7FEF78AFE6268530803EB400329
:10240000B3FBF2F39BB20020CFE76268530803F5F9
:102410008033B3FBF2F39BB20020C6E70120002318
:10242000C3E7FFF737FA636800EB5302B2FBF3F23E
:1024300092B20020A2F110014FF6EF7399423BD8FF
:102440002368DA60002222666266BDE8F088FFF742
:1024500033FA636800EB5302B2FBF3F292B200204E
:10246000E8E763685A0802F5740202F51052B2FBFD
:10247000F3F292B20020DDE7FEF748FE636800EB5E
:102480005302B2FBF3F292B20020D3E763685A081A
:1024900002F50042B2FBF3F292B20020CAE701203B
:1024A0000022C7E70120CDE70120CBE70120C9E7E3
:1024B0000120C7E70120C5E70120C3E7436A13F005
:1024C000010F06D00268536823F40033816A0B437E
:1024D0005360436A13F0020F06D00268536823F476
:1024E0008033C16A0B435360436A13F0040F06D074
:1024F0000268536823F48023016B0B435360436AE3
:1025000013F0080F06D00268536823F40043416BB0
:102510000B435360436A13F0100F06D002689368B0
:1025200023F48053816B0B439360436A13F0200FB5
:1025300006D00268936823F40053C16B0B43936089
:10254000436A13F0400F0AD00268536823F48013E3
:10255000016C0B435360036CB3F5801F0BD0436ACF
:1025600013F0800F06D00268536823F40023816CB7
:102570000B43536070470268536823F4C003416CF7
:102580000B435360EBE72DE9F04105460F46164635
:102590009846069C2B68DB6937EA03030CBF0123CE
:1025A0000023B3421DD1B4F1FF3FF3D02CB1FDF7AE
:1025B000CFFFA0EB0800A042ECD92A68136823F4EF
:1025C000D07313602A68936823F00103936020237B
:1025D00085F8713085F87230002385F8703003205B
:1025E00000E00020BDE8F08130B583B00446002350
:1025F0004367FDF7ADFF054623681B6813F0080F1E
:102600000ED123681B6813F0040F17D1202384F820
:10261000713084F87230002084F8700003B030BD4F
:102620006FF07E430093034600224FF400112046D2
:10263000FFF7A9FF0028E4D00320EFE76FF07E4307
:1026400000932B4600224FF480012046FFF79BFFAA
:102650000028DBD00320E1E778B310B5044690F8FA
:1026600071300BB3242384F871302268136823F08F
:10267000010313602046FFF70FFD012813D0636AA2
:10268000BBB92268536823F490435360226893686F
:1026900023F02A0393602268136843F00103136058
:1026A0002046FFF7A1FF10BD80F8703001F026FB37
:1026B000D8E72046FFF702FFE3E70120704708B59F
:1026C00000F074FC012801D000F05CFD08BD00F1B1
:1026D000080343604FF0FF328260C3600361002350
:1026E0000360704700230361704743684B609A683A
:1026F0008A609A68516099600861036801330360D9
:10270000704730B40D68B5F1FF3F02D000F1080208
:1027100002E0026904E01A4653681C68AC42FAD928
:1027200053684B6099608A605160086103680133A7
:10273000036030BC704703694268816891608268B9
:10274000416851605A68824206D0002202611A68CC
:10275000013A1A601868704782685A60F5E700000D
:10276000074B9B6A1B6833B1054B9A6AD268D268E3
:102770005268DA627047024B4FF0FF32DA627047FC
:102780002400002010B50446006B00F08FFE2046A8
:1027900000F08CFE10BD2DE9F04780469946089D5B
:1027A000099F0A9C266B02F18042013A06EB8206E1
:1027B00026F0070600230F2B07D8C85CE21882F822
:1027C0003400CA5C0AB10133F5E7002384F84330D2
:1027D000062D00D90625E56265644FF0000AC4F8AD
:1027E00048A0201DFFF77EFF04F11800FFF77AFFD5
:1027F0002461C5F10705A5616462C4F84CA084F8A2
:1028000050A04A464146304600F01EFC206007B109
:102810003C60BDE8F087000070B5002407E004EBE1
:102820008402930010481844FFF751FF0134062C2E
:10283000F5D90E4C04F1BC063046FFF748FF04F111
:10284000D0052846FFF743FF04F11400FFF73FFFD0
:1028500004F1E400FFF73BFF2046FFF738FFA662D4
:10286000C4F8F85070BD00BF5400002024000020C0
:1028700038B5054600F016FC264BD3F8FC20013293
:10288000C3F8FC20D3F8003173B1224BD3F80431E4
:102890008BB9204BD3F80031DA6AEB6A9A420AD836
:1028A0001C4BC3F8005106E01A4BC3F80051D3F893
:1028B000FC30012B2AD0174CD4F808310133C4F86E
:1028C0000831EB6A01229A40D4F80C110A43C4F88B
:1028D0000C2104F1300003EB83039A00291D1044FE
:1028E000FFF703FF00F000FCD4F804316BB1D4F81B
:1028F0000031DA6AEB6A9A4207D2074B4FF08052F6
:102900001A60BFF34F8FBFF36F8F38BDFFF784FF9F
:10291000D1E700BF2400002004ED00E038B517E047
:1029200000F0C0FB0D4CD4F8F030DD68281DFFF737
:1029300002FFD4F8FC30013BC4F8FC30D4F810316D
:10294000013BC4F8103100F0CFFB2846FFF71AFF17
:10295000024BD3F81031002BE2D138BD2400002007
:1029600008B5FFF7DBFF064B1B6B012BF9D9054BB5
:102970004FF080521A60BFF34F8FBFF36F8FF0E7B5
:102980002400002004ED00E070B504460E461F4B05
:10299000D3F81451D3F800010430FFF7CCFE60B92E
:1029A0001A4BD3F80021D16A012202FA01F1D3F8BF
:1029B0000C2122EA0102C3F80C21B4F1FF3F12D02E
:1029C0002C44124BD3F800315C60A54214D80F4D53
:1029D000A86AD5F800110431FFF793FEEB6AA34211
:1029E00012D9EC6210E0002EEAD00848D0F80011AD
:1029F0000431FFF77AFE07E0044BD3F8F800D3F870
:102A000000110431FFF77DFE70BD00BF24000020DF
:102A10002DE9F04385B00746884615469946900053
:102A200000F0BEFCF8B10646542000F0B9FC0446A4
:102A3000A8B10663D4B10023039302940D9B0193C4
:102A40000C9B00934B462A4641463846FFF7A3FEAF
:102A50002046FFF70DFF012005B0BDE8F0833046AA
:102A600000F024FDE6E74FF0FF30F5E74FF0FF30D0
:102A7000F2E7000070B5044600F014FB002C3DD0D6
:102A8000261D3046FFF757FE88B9E26A02EB820343
:102A900099002D4B0B441B6B4BB9012303FA02F237
:102AA0002949D1F80C3123EA0203C1F80C31A36A99
:102AB0001BB104F11800FFF73EFE234BD3F80821A9
:102AC0000132C3F80821D3F80031A3421AD01E4ABC
:102AD000D2F8FC30013BC2F8FC302046FFF752FE32
:102AE000FFF73EFE00F000FB174BD3F8043123B193
:102AF000154BD3F80031A34210D070BD124BD3F860
:102B00000041BDE7104D314605F1E400FFF7EDFD52
:102B1000D5F810310133C5F81031E3E70A4BD3F88B
:102B2000183143B14FF0500383F31188BFF36F8F17
:102B3000BFF34F8FFEE7054B4FF080521A60BFF393
:102B40004F8FBFF36F8FD8E72400002004ED00E023
:102B500010B5044600F0A6FA24B1E46A00F0C4FA05
:102B6000204610BD014BD3F80041F6E724000020B9
:102B700000B583B0174B01930023009380221649C0
:102B80001648FFF745FF012805D0B0F1FF3F17D0E9
:102B900003B05DF804FB4FF0500383F31188BFF3DB
:102BA0006F8FBFF34F8F0E4B4FF0FF32DA6201226F
:102BB000C3F804210022C3F8142100F015FBE7E755
:102BC0004FF0500383F31188BFF36F8FBFF34F8F24
:102BD000FEE700BF40010020E03F00086129000837
:102BE00024000020034AD2F818310133C2F818310A
:102BF000704700BF24000020014BD3F81401704738
:102C000024000020034618B133B103F134007047AB
:102C1000064BD3F80031F7E74FF0500383F31188E8
:102C2000BFF36F8FBFF34F8FFEE700BF240000207C
:102C30002DE9F041404BD3F81831002B6CD13E4BBD
:102C4000D3F814510135C3F81451CDB99B6A1B68F0
:102C500043B14FF0500383F31188BFF36F8FBFF37D
:102C60004F8FFEE7344B9A6AD3F8F8109962C3F895
:102C7000F820D3F820210132C3F82021FFF770FD9E
:102C80002D4BDB6AAB423DD900242B4AD2F80031F0
:102C9000DB6A03EB830399000A44136B012B42D9CF
:102CA000012440E00124244B9B6A1B6863B3224B40
:102CB0009B6ADB68DE6873689D422AD306F10408CC
:102CC0004046FFF738FDB36A1BB106F11800FFF765
:102CD00032FDF36A01229A40174FD7F80C110A43CC
:102CE000C7F80C2107F1300003EB83039A0041463B
:102CF0001044FFF7FAFCF26AD7F80031DB6A9A4217
:102D0000D0D2D0E70024CEE70B4B4FF0FF32DA628F
:102D1000BBE7094AD362B8E7074AD2F82431013346
:102D2000C2F824310024044BD3F8283103B1012424
:102D30002046BDE8F08100BF24000020394BD3F8C5
:102D4000183143B94FF0500383F31188BFF36F8FED
:102D5000BFF34F8FFEE770B500F0A4F9314BD3F805
:102D60001821013AC3F81821D3F81831002B54D197
:102D70002C4BD3F8FC3023B9002400F0B5F92046E1
:102D800070BD0024274B5B692BB3264D2B6ADC6892
:102D900004F11800FFF7CFFC261D3046FFF7CBFCEF
:102DA000E36A01229A40D5F80C110A43C5F80C21B8
:102DB00005F1300003EB83039A0031461044FFF71E
:102DC00094FCE26AD5F80031DB6A9A42DAD3012238
:102DD000C5F82821D6E70CB1FFF7C2FC114BD3F898
:102DE000244164B1FFF724FF18B10E4B0122C3F850
:102DF0002821013CF6D10B4B0022C3F82421094BBA
:102E0000D3F828315BB1084B4FF080521A60BFF302
:102E10004F8FBFF36F8F0124AFE70024ADE700248D
:102E2000ABE700BF2400002004ED00E038B550B14E
:102E3000054689B94FF0500383F31188BFF36F8FB4
:102E4000BFF34F8FFEE74FF0500383F31188BFF3BA
:102E50006F8FBFF34F8FFEE71B4BD3F8183143B191
:102E60004FF0500383F31188BFF36F8FBFF34F8F81
:102E7000FEE70C46FFF7B6FE134BD3F814012A68A1
:102E80001444824218D9A2420CD82C60FFF756FF96
:102E900038B90E4B4FF080521A60BFF34F8FBFF31B
:102EA0006F8F38BDA04201D32C60EFE72C6000216A
:102EB000201AFFF769FDE9E7A24201D8A04201D23A
:102EC0002C60F4E72C60E1E72400002004ED00E032
:102ED00010B5B0B104460F4BD3F8183143B14FF0E1
:102EE000500383F31188BFF36F8FBFF34F8FFEE75B
:102EF000FFF778FE00212046FFF746FDFFF71EFF93
:102F000038B9054B4FF080521A60BFF34F8FBFF3B3
:102F10006F8F10BD2400002004ED00E0224BD3F899
:102F2000183123B1204B0122C3F8282170471E4AD3
:102F30000023C2F82831D2F80C31B3FA83F3DBB2A4
:102F4000C3F11F0303EB830081000A44126B42B9F3
:102F50004FF0500383F31188BFF36F8FBFF34F8F90
:102F6000FEE710B4104A9900CC18A0001044446B3E
:102F70006468446330321944880008300244944243
:102F80000BD0094903EB83039A000A44536BDB68B7
:102F9000C1F800315DF8044B7047616802481422A3
:102FA00002FB03025163ECE724000020064BD3F838
:102FB00004313BB1044BD3F818310BB100207047FA
:102FC00002207047012070472400002082B00023B7
:102FD00001930D4B1B68B3F1FF3F08D04FF0500336
:102FE00083F31188BFF36F8FBFF34F8FFEE74FF06E
:102FF000500383F31188BFF36F8FBFF34F8F019B93
:10300000002BFCD002B07047000000200848006888
:10301000006880F308884FF0000080F3148862B6DF
:1030200061B6BFF34F8FBFF36F8F00DF00BF0000AB
:1030300008ED00E0DFF80C00016841F47001016068
:103040007047000088ED00E04FF0807340F8043CCA
:1030500021F0010140F8081C054B40F80C3C40F8F9
:10306000202C6FF0020340F8243C4438704700BF26
:10307000CD2F00080000000000000000000000004C
:10308000074B19680868B0E8F04F80F30988BFF370
:103090006F8F4FF0000080F311887047AFF300800E
:1030A000240100204FF0500383F31188BFF36F8F8A
:1030B000BFF34F8F0A4A136801331360012B00D00E
:1030C0007047084B1B6813F0FF0FF9D04FF0500307
:1030D00083F31188BFF36F8FBFF34F8FFEE700BFFD
:1030E0000000002004ED00E0094B1B6843B94FF0DD
:1030F000500383F31188BFF36F8FBFF34F8FFEE749
:10310000013B034A13600BB983F31188704700BF7A
:10311000000000200000000000000000000000008F
:10312000EFF30980BFF36F8F154B1A681EF0100F75
:1031300008BF20ED108A20E9F04F10602DE909004A
:103140004FF0500080F31188BFF34F8FBFF36F8FA4
:10315000FFF7E4FE4FF0000080F3118809BC196806
:103160000868B0E8F04F1EF0100F08BFB0EC108AEE
:1031700080F30988BFF36F8F704700BFAFF3008003
:103180002401002008B54FF0500383F31188BFF3EA
:103190006F8FBFF34F8FFFF74BFD18B1034B4FF00D
:1031A00080521A60002383F3118808BD04ED00E00B
:1031B000084A0023136008490B60084B1B68084944
:1031C000A1FB03139B09013B06490B600723136016
:1031D000704700BF10E000E018E000E004000020AD
:1031E000D34D621014E000E0394B1A68394B9A4213
:1031F0000DD0374B1A68384B9A4211D14FF050031B
:1032000083F31188BFF36F8FBFF34F8FFEE74FF04B
:10321000500383F31188BFF36F8FBFF34F8FFEE727
:1032200010B582B02D4B1A78D2B20192FF221A70DB
:103230001B78DBB28DF803309DF8033003F05003A8
:10324000274A13700723536009E0254A5368013B5E
:1032500053609DF803305B00DBB28DF803309DF8BE
:10326000033013F0800FF0D11D4B5B68032B08D0A7
:103270004FF0500383F31188BFF36F8FBFF34F8F6D
:10328000FEE71B0203F4E063154A5360019BDBB2C7
:10329000124A1370134B1A6842F470021A601A68CB
:1032A00042F070421A60FFF783FF00240E4B1C604F
:1032B000FFF7C0FE0D4A136843F040431360FFF769
:1032C000A5FEFFF72BFEFFF781FE204602B010BDE2
:1032D00000ED00E071C20F4170C20F4100E400E058
:1032E0005001002020ED00E00000002034EF00E05D
:1032F000144A12F0070F21D0D11D21F00701C1F5AA
:103300003B63083313440A460E49C1F8B82B00202A
:10331000C1F8BC0B1344083B23F00703C1F8C03BC2
:1033200058601860981A50601360C1F8C40BC1F857
:10333000C80B4FF00043C1F8CC3B704740F6B833A0
:10334000E2E700BF5801002010B4134B1A68824214
:103350001CD359685C18844203D140680144596009
:10336000184641684418A24214D10C4CD4F8C04B02
:10337000A2420DD05268114441601A68126802607E
:10338000984200D018605DF8044B70471346DDE7A3
:103390000460F5E70260F3E7100D002058010020FB
:1033A00070B50446FFF71EFC3F4BD3F8C03BC3B1DA
:1033B0003D4BD3F8CC3B1C426CD1ACB1083414F07B
:1033C000070F11D024F00704083404F007035BB1A1
:1033D0004FF0500383F31188BFF36F8FBFF34F8F0C
:1033E000FEE7FFF785FFE3E7002C55D02E4BD3F81F
:1033F000C83BA34252D32C4BD3F8B85B03F6B83387
:1034000001E02B4615466A68A24202D22A68002AC9
:10341000F7D1254AD2F8C02BAA4241D01E680836FF
:103420002A681A606B681B1B102B10D9281910F022
:10343000070F08D04FF0500383F31188BFF36F8F4D
:10344000BFF34F8FFEE743606C60FFF77DFF696855
:10345000154AD2F8C83B5B1AC2F8C83BD2F8C42B55
:10346000934202D2104AC2F8C43B0F4BD3F8CC3B74
:103470000B436B6000232B60FFF760FC16F0070F17
:1034800010D04FF0500383F31188BFF36F8FBFF359
:103490004F8FFEE70026EFE70026EDE70026EBE77B
:1034A0000026E9E7304670BD5801002098B338B5D2
:1034B0000446A0F1080550F8042C1749D1F8CC1B9C
:1034C0000A4208D14FF0500383F31188BFF36F8F86
:1034D000BFF34F8FFEE750F8080C40B14FF0500398
:1034E00083F31188BFF36F8FBFF34F8FFEE722EA9C
:1034F000010244F8042CFFF775FB54F8041C064A3B
:10350000D2F8C83B0B44C2F8C83B2846FFF71CFF63
:10351000FFF714FC38BD70475801002038B5054648
:103520000C46217829B12B685B68013428469847FE
:10353000F7E738BDF0B585B006460C4615462A4A71
:1035400001AB07CA03C31A80092C14D0042C27D05E
:1035500024B3042C39D8631EDFB2FCB133685A6837
:1035600005EB4503023304A90B4413F80C1C304649
:1035700090473C46EFE733685A6805EB4505AB1CBE
:1035800004A90B4413F80C1C3046904733685B6861
:1035900004AA154415F80C1C3046984705B0F0BD38
:1035A00033685A6805EB4505AB1C04A90B4413F8B6
:1035B0000C1C3046904733685B68013504AA1544FB
:1035C00015F80C1C30469847E8E733685A6805EB55
:1035D0004503013304A90B4413F80C1C30469047F3
:1035E000053CE4B2B7E700BFE83F000870B5054608
:1035F0000C4659B1B4F57A7F0CD32B685B684D212A
:1036000028469847A4F57A74A4B2F3E71149FFF766
:1036100085FFEFE7104EA6FB043676090022F1B2D3
:103620002846FFF787FF642101FB1644A4B20B4E26
:10363000A6FB0436F6080122F1B22846FFF77AFF0E
:1036400006EB86067100611A0222C9B22846FFF70E
:1036500071FF70BDF43F00081F85EB51CDCCCCCC81
:1036600070B58AB005460E460379022B18D001A921
:103670002B79B6FBF3F202FB13630F334C1C134898
:10368000C35C0B7016462146002AF1D101AB9C4267
:1036900018D92B685B6814F8011D28469847F5E790
:1036A0004FF0004405E02B685B68302128469847BE
:1036B00064083CB13442F6D02B685B68312128465F
:1036C0009847F5E728460AB070BD00BF383F0008AC
:1036D00070B584B004460E464379DBB90379022BFA
:1036E0001DD001AA2179B6FBF1F301FB13610F3163
:1036F000551C1448415C11701E462A46002BF1D11E
:1037000001AB9D4208D923685B6815F8011D20466E
:103710009847F5E7FFF76AFF204604B070BD8025A3
:1037200005E023685B683021204698476D08002D2E
:10373000F2D03542F5D023685B68312120469847A6
:10374000F4E700BF583F000808B5FFF729FE08BDA1
:103750000078B0FA80F04009704701230370704789
:103760007047000008B50F4B1B78BFF35B8F13F059
:10377000010F0AD04FF09042536983F02003536148
:10378000FA210948FFF752FBF4E70648FFF7E0FF8C
:103790000028EFD0FFF730FA024B58601846FFF7C9
:1037A000DCFFE7E7280D00202C0D002010B58AB0C3
:1037B000214BDA6C42F00402DA64DA6C02F00402A3
:1037C0000192019ADA6C42F08002DA64DA6C02F05B
:1037D00080020292029ADA6C42F00102DA64DA6C38
:1037E00002F001020392039ADA6C42F00202DA64F8
:1037F000DB6C03F002030493049B002220214FF0B2
:103800009040FDF72DFB4FF4005305930B4B0693AF
:103810000024079405A90A48FDF738FA20230593E8
:10382000012306930794089405A94FF09040FDF7F3
:103830002DFA0AB010BD00BF001002400000211098
:103840000008004830B583B00446069D009500F09E
:10385000ABFA024B2360204603B030BD803F000826
:10386000FEE7000008B50D480D4B83604FF4E133CF
:10387000C36000230361436183610C22C261036260
:1038800043628362C3620830FEF7E6FE00B908BDFA
:103890004FF4C6710348FFF7E3FF00BF280D002077
:1038A00000440040F83F000808B51A481A4BC0F819
:1038B00080301A4BC0F884300023C0F888300122D1
:1038C000C0F88C20C0F89030C0F89430C0F8983020
:1038D000C0F89C30C0F8A0308030FDF7C6FA50B96F
:1038E00000210F48FDF71FFB50B900210C48FDF7E0
:1038F00048FB50B908BD40F24F110A48FFF7B0FF2E
:103900004FF4AB710748FFF7ABFF40F25D1105487C
:10391000FFF7A6FF280D002000540040EC9C9010FB
:10392000A80D0020F83F000808B51948194BC0F849
:10393000CC304FF48273C0F8D0304FF40043C0F85D
:10394000D4304FF44073C0F8D8300023C0F8DC30D6
:10395000C0F8E0304FF40072C0F8E420C0F8E8305E
:10396000C0F8EC30C0F8F030C0F8F4300722C0F8EE
:10397000F820C0F8FC300823C0F80031CC30FEF746
:1039800033FB00B908BD40F277110348FFF768FF29
:10399000280D002000380040F83F000800B587B02F
:1039A0002248234BC0F830310023C0F83431C0F82E
:1039B0003831C0F83C31C0F840310422C0F844210D
:1039C00080F8483180F849310122C0F84C2180F854
:1039D0005031C0F85831C0F85C3180F86031C0F81F
:1039E000643180F8683100F59870FCF7B7FD90B944
:1039F000104B009306230193002302930E4A039277
:103A000004220492059369460C48FCF7B3FE38B9CA
:103A100007B05DF804FB4FF497710948FFF720FFEA
:103A200040F23B110648FFF71BFF00BF280D0020A6
:103A3000000204500200300400007F40580E0020B5
:103A4000F83F000800B5B9B0022327934FF4807205
:103A50002A9210222B9231933293012233920A221E
:103A60003492072235923693379327A8FDF7BAFB95
:103A7000002840D10F232293032323930023249370
:103A800025932693042122A8FDF754FE002836D161
:103A900044F24203009300230F9314934FF080539A
:103AA0001E9302230193012202920822039207220D
:103AB0000492059306934FF0807307936846FEF7D0
:103AC0006BF800BB4FF40070FDF790FAF8B9FDF702
:103AD000DBFE114BA3FB00308009FDF7B1F8042099
:103AE000FDF7C4F800220F214FF0FF30FDF774F806
:103AF00039B05DF804FBE0210848FFF7B1FEEE2184
:103B00000648FFF7ADFEFF210448FFF7A9FE4FF47A
:103B100083710248FFF7A4FED34D6210F83F0008FE
:103B200010B582B0FCF7F6FCFFF78CFFFFF73EFE06
:103B3000FFF798FEFFF7B8FEFFF7F6FEFFF72EFF40
:103B40001820FFF701FE00240094F023012204490D
:103B5000FFF778FEFFF70CF8204602B010BD00BF5B
:103B60000840000800B583B0214B1A6E42F00102F4
:103B70001A661A6E02F001020092009A9A6D42F0E3
:103B800080529A659B6D03F080530193019B032043
:103B9000FDF710F8002211466FF00B00FDF71CF83E
:103BA000002211466FF00A00FDF716F800221146B8
:103BB0006FF00900FDF710F8002211466FF00400C5
:103BC000FDF70AF8002211466FF00300FDF704F834
:103BD00000220F216FF00100FCF7FEFF00220F21F1
:103BE0004FF0FF30FCF7F8FF03B05DF804FB00BFB7
:103BF000001002400268104B9A4200D0704700B596
:103C000087B003F17043A3F5F933DA6C42F4005244
:103C1000DA64DB6C03F400530093009B03230193ED
:103C20000B2302930023039301A90448FDF72EF808
:103C300007B05DF804FB00BF000204500008004814
:103C40000268114B9A4200D0704700B587B0C0237C
:103C50000193122302930123039303230493042368
:103C600005930DEB03010948FDF710F8084B9A6D19
:103C700042F400129A659B6D03F400130093009BBD
:103C800007B05DF804FB00BF00540040000400488A
:103C9000001002400268164B9A4200D07047F0B5FF
:103CA00087B003F5EC339A6D42F480429A659B6DC0
:103CB00003F480430093009B08230193022702979B
:103CC00000260396032504950524059401A90948B7
:103CD000FCF7DCFF4FF48063019302970396049591
:103CE000059401A90448FCF7D1FF07B0F0BD00BF5F
:103CF0000038004000080048000400480268114BEA
:103D00009A4200D0704700B587B003F5E6339A6D4C
:103D100042F400329A659B6D03F400330093009BDC
:103D20000C230193022302930023039303230493A0
:103D30000723059301A94FF09040FCF7A7FF07B0B8
:103D40005DF804FB004400407047FEE7FEE7FEE735
:103D5000FEE7704708B5FCF7F3FBFEF7B0FC08BDC3
:103D60000F49D1F8883043F47003C1F888300D4B07
:103D70001A6842F001021A60002098601A6822F066
:103D8000A85222F410221A604FF48052DA601A68A6
:103D900022F480221A6098614FF000638B607047B4
:103DA00000ED00E00010024030B583B004460C4D39
:103DB00040F8045B9DB20190009223462A460948D0
:103DC000FEF726FE069BE360074B1A68A2601C60A4
:103DD0000023237463746361204603B030BD00BFC9
:103DE000D83F00080B3E0008C00E002010B5044666
:103DF00003681B689847606800236360FEF73AFE1B
:103E00004FF0FF30FFF764F8FAE708B5FFF7EEFF71
:103E100070B504460D464068FEF7F4FE014628469C
:103E2000FFF77CFB2B685B68092128469847606890
:103E3000FEF7E8FEFCF74CFB072818D96068FEF790
:103E400087FE01462846FFF70BFC06460B4D294628
:103E5000FFF764FB217C3046FFF73AFC0646294613
:103E6000FFF75CFB61693046FFF7FAFB70BD2B681A
:103E70005B68092128469847E0E700BF104000082A
:103E8000DFF834D0002103E00C4B5B584350043181
:103E90000B480C4B42189A42F6D30B4A02E000231F
:103EA00042F8043B094B9A42F9D3FFF759FF00F05F
:103EB00011F8FFF735FEFEE7008001208040000882
:103EC000000000200800002008000020C80E00208C
:103ED000FEE7000070B50D4E0D4CA41BA41000258C
:103EE000A54209D10B4E0C4C00F018F8A41BA410ED
:103EF0000025A54205D170BD56F8253098470135FB
:103F0000EEE756F8253098470135F2E77040000893
:103F1000704000087040000874400008F8B500BF09
:103F2000F8BC08BC9E467047F8B500BFF8BC08BC9A
:083F30009E46704700000000EE
:103F380046454443424139383736353433323130D7
:103F480031323334353637383941424344454600F7
:103F580046454443424139383736353433323130B7
:103F680031323334353637383941424344454600D7
:103F7800000000000000000065370008113E00083E
:103F8800A0860100400D0300801A060000350C00D1
:103F980040420F0080841E0000093D0000127A0094
:103FA8000024F40000366E010048E801006CDC02D1
:103FB80000000000000000000102030406070809D1
:103FC80000000000010203040000000000000000DF
:103FD80061370008113E000849444C4500000000C4
:103FE8004D4443434C585856490000004E696C00F4
:103FF8002E2E2F5372632F6D61696E2E63707000C1
:104008004C45447300000000090000005461736BC4
:1040180009092020092000004E616D6509095072C8
:10402800692E095374617465000000000952756EA9
:10403800730000002D2D2D2D09092D2D2D2D092D55
:104048002D2D2D2D00000000092D2D2D2D000000F7
:1040580049444C45090930092D09000000000000B9
:0840680098C1FF7F0100000078
:08407000B5010008000000008A
:084078009101000800000000A6
:08408000AAAAAAAA00093D004A
:0400000508003E8130
:00000001FF
