:020000040800F2
:100000000080012011650008D9630008DB63000847
:10001000DD630008DF630008E16300080000000002
:10002000000000000000000000000000814B0008FC
:10003000E363000800000000214C0008E5630008AD
:100040006165000861650008616500086165000878
:100050006165000861650008616500086165000868
:100060006165000861650008616500086165000858
:100070006165000861650008616500086165000848
:100080006165000861650008616500086165000838
:100090006165000861650008616500086165000828
:1000A0006165000861650008616500086165000818
:1000B0006165000861650008616500086165000808
:1000C00061650008616500086165000861650008F8
:1000D00061650008616500086165000861650008E8
:1000E00061650008616500086165000861650008D8
:1000F00061650008616500086165000861650008C8
:1001000061650008616500086165000861650008B7
:1001100061650008616500086165000861650008A7
:100120006165000861650008616500086165000897
:100130006165000861650008616500086165000887
:100140006165000861650008616500086165000877
:100150006165000861650008616500086165000867
:100160006165000861650008616500086165000857
:100170006165000861650008616500080000000015
:080180006165000861650008DB
:1001900010B5054C237833B9044B13B10448AFF3C1
:1001A00000800123237010BDE0010020000000004A
:1001B0007086000808B5034B1BB103490348AFF331
:1001C000008008BD00000000E401002070860008E7
:1001D00081F0004102E000BF83F0004330B54FEAF8
:1001E00041044FEA430594EA050F08BF90EA020F65
:1001F0001FBF54EA000C55EA020C7FEA645C7FEAF8
:10020000655C00F0E2804FEA5454D4EB5555B8BF1A
:100210006D420CDD2C4480EA020281EA030382EA8B
:10022000000083EA010180EA020281EA0303362D1D
:1002300088BF30BD11F0004F4FEA01314FF4801CF0
:100240004CEA113102D0404261EB410113F0004F02
:100250004FEA03334CEA133302D0524263EB4303B9
:1002600094EA050F00F0A780A4F10104D5F1200E57
:100270000DDB02FA0EFC22FA05F2801841F10001B2
:1002800003FA0EF2801843FA05F359410EE0A5F186
:1002900020050EF1200E012A03FA0EFC28BF4CF0B7
:1002A000020C43FA05F3C01851EBE37101F000456D
:1002B00007D54FF0000EDCF1000C7EEB00006EEB7A
:1002C0000101B1F5801F1BD3B1F5001F0CD3490804
:1002D0005FEA30004FEA3C0C04F101044FEA44525B
:1002E00012F5800F80F09A80BCF1004F08BF5FEAE2
:1002F000500C50F1000041EB045141EA050130BDC2
:100300005FEA4C0C404141EB010111F4801FA4F164
:100310000104E9D191F0000F04BF01460020B1FAB9
:1003200081F308BF2033A3F10B03B3F120020CDAF1
:100330000C3208DD02F1140CC2F10C0201FA0CF0CF
:1003400021FA02F10CE002F11402D8BFC2F1200C34
:1003500001FA02F120FA0CFCDCBF41EA0C019040EA
:10036000E41AA2BF01EB0451294330BD6FEA040433
:100370001F3C1CDA0C340EDC04F11404C4F120021E
:1003800020FA04F001FA02F340EA030021FA04F330
:1003900045EA030130BDC4F10C04C4F1200220FA87
:1003A00002F001FA04F340EA0300294630BD21FAC5
:1003B00004F0294630BD94F0000F83F4801306BF8B
:1003C00081F480110134013D4EE77FEA645C18BF7F
:1003D0007FEA655C29D094EA050F08BF90EA020F16
:1003E00005D054EA000C04BF1946104630BD91EA0E
:1003F000030F1EBF0021002030BD5FEA545C05D111
:100400004000494128BF41F0004130BD14F580044F
:100410003CBF01F5801130BD01F0004545F0FE41C3
:1004200041F470014FF0000030BD7FEA645C1ABFF8
:10043000194610467FEA655C1CBF0B46024650EA2F
:10044000013406BF52EA033591EA030F41F400215B
:1004500030BD00BF90F0000F04BF0021704730B5E1
:100460004FF4806404F132044FF000054FF00001B6
:1004700050E700BF90F0000F04BF0021704730B577
:100480004FF4806404F1320410F0004548BF40424C
:100490004FF000013EE700BF42004FEAE2014FEAA1
:1004A00031014FEA02701FBF12F07F4393F07F4F7C
:1004B00081F06051704732F07F4208BF704793F07F
:1004C0007F4F04BF41F40021704730B54FF4607492
:1004D00001F0004521F000411CE700BF50EA010295
:1004E00008BF704730B54FF000050AE050EA01023E
:1004F00008BF704730B511F0004502D5404261EBAE
:1005000041014FF4806404F132045FEA915C3FF4EE
:10051000D8AE4FF003025FEADC0C18BF03325FEA8B
:10052000DC0C18BF033202EBDC02C2F1200300FA3C
:1005300003FC20FA02F001FA03FE40EA0E0021FA61
:1005400002F11444BDE600BF70B54FF0FF0C4CF44F
:10055000E06C1CEA11541DBF1CEA135594EA0C0F01
:1005600095EA0C0F00F0DEF82C4481EA030621EA3C
:100570004C5123EA4C5350EA013518BF52EA033577
:1005800041F4801143F4801338D0A0FB02CE4FF029
:100590000005E1FB02E506F00042E0FB03E54FF059
:1005A0000006E1FB03569CF0000F18BF4EF0010E51
:1005B000A4F1FF04B6F5007F64F5407404D25FEA4D
:1005C0004E0E6D4146EB060642EAC62141EA555100
:1005D0004FEAC52040EA5E504FEACE2EB4F1FD0C42
:1005E00088BFBCF5E06F1ED8BEF1004F08BF5FEAC0
:1005F000500E50F1000041EB045170BD06F0004672
:1006000046EA010140EA020081EA0301B4EB5C041E
:10061000C2BFD4EB0C0541EA045170BD41F4801116
:100620004FF0000E013C00F3AB8014F1360FDEBF3B
:10063000002001F0004170BDC4F10004203C35DA17
:100640000C341BDC04F11404C4F1200500FA05F39A
:1006500020FA04F001FA05F240EA020001F000423B
:1006600021F0004110EBD37021FA04F642EB0601B1
:100670005EEA430E08BF20EAD37070BDC4F10C04DB
:10068000C4F1200500FA04F320FA05F001FA04F29F
:1006900040EA020001F0004110EBD37041F100018B
:1006A0005EEA430E08BF20EAD37070BDC4F1200596
:1006B00000FA05F24EEA020E20FA04F301FA05F2FE
:1006C00043EA020321FA04F001F0004121FA04F2A6
:1006D00020EA020000EBD3705EEA430E08BF20EA76
:1006E000D37070BD94F0000F0FD101F000464000B0
:1006F00041EB010111F4801F08BF013CF7D041EA32
:10070000060195F0000F18BF704703F00046520035
:1007100043EB030313F4801F08BF013DF7D043EA06
:100720000603704794EA0C0F0CEA135518BF95EABC
:100730000C0F0CD050EA410618BF52EA4306D1D143
:1007400081EA030101F000414FF0000070BD50EA62
:10075000410606BF1046194652EA430619D094EAEC
:100760000C0F02D150EA013613D195EA0C0F05D1D6
:1007700052EA03361CBF104619460AD181EA03012A
:1007800001F0004141F0FE4141F470014FF00000E2
:1007900070BD41F0FE4141F4780170BD70B54FF07D
:1007A000FF0C4CF4E06C1CEA11541DBF1CEA1355FD
:1007B00094EA0C0F95EA0C0F00F0A7F8A4EB0504DF
:1007C00081EA030E52EA03354FEA013100F08880D6
:1007D0004FEA03334FF0805545EA131343EA12639F
:1007E0004FEA022245EA111545EA10654FEA002654
:1007F0000EF000419D4208BF964244F1FD0404F50D
:10080000407402D25B084FEA3202B61A65EB030568
:100810005B084FEA32024FF480104FF4002CB6EB25
:10082000020E75EB030E22BFB61A754640EA0C00A5
:100830005B084FEA3202B6EB020E75EB030E22BFE5
:10084000B61A754640EA5C005B084FEA3202B6EB26
:10085000020E75EB030E22BFB61A754640EA9C00E5
:100860005B084FEA3202B6EB020E75EB030E22BFB5
:10087000B61A754640EADC0055EA060E18D04FEA73
:10088000051545EA16754FEA06164FEAC30343EA13
:1008900052734FEAC2025FEA1C1CC0D111F4801FE0
:1008A0000BD141EA00014FF000004FF0004CB6E7D9
:1008B00011F4801F04BF01430020B4F1FD0C88BF78
:1008C000BCF5E06F3FF6AFAEB5EB030C04BFB6EB83
:1008D000020C5FEA500C50F1000041EB045170BD76
:1008E0000EF0004E4EEA113114EB5C04C2BFD4EBA3
:1008F0000C0541EA045170BD41F480114FF0000E27
:10090000013C90E645EA060E8DE60CEA135594EAA2
:100910000C0F08BF95EA0C0F3FF43BAF94EA0C0FA5
:100920000AD150EA01347FF434AF95EA0C0F7FF41A
:1009300025AF104619462CE795EA0C0F06D152EA6E
:1009400003353FF4FDAE1046194622E750EA410652
:1009500018BF52EA43067FF4C5AE50EA41047FF463
:100960000DAF52EA43057FF4EBAE12E74FEA4102C6
:10097000B2F1E04324BFB3F5001CDCF1FE5C0DD9FD
:1009800001F0004C4FEAC0024CEA5070B2F1004F47
:1009900040EB830008BF20F00100704711F0804F4A
:1009A00021D113F13872BCBF01F00040704741F40F
:1009B00080114FEA5252C2F11802C2F1200C10FA13
:1009C0000CF320FA02F018BF40F001004FEAC123F7
:1009D0004FEAD32303FA0CFC40EA0C0023FA02F39B
:1009E0004FEA4303CCE77FEA625307D150EA013371
:1009F0001EBF4FF0FE4040F44000704701F0004041
:100A000040F0FE4040F40000704700BF53B94AB9BF
:100A1000002908BF00281CBF4FF0FF314FF0FF3006
:100A200000F072B9ADF1080C6DE904CE00F006F8E3
:100A3000DDF804E0DDE9022304B070472DE9F0475A
:100A4000089E04468846002B4BD18A42154667D93A
:100A5000B2FA82F24AB1C2F1200701FA02F320FA97
:100A600007F7954047EA030894404FEA154E230CD8
:100A7000B8FBFEF71FFA85FC0EFB178843EA084314
:100A800007FB0CF1994209D9EB1807F1FF3080F010
:100A90001B81994240F21881023F2B445B1AA4B299
:100AA000B3FBFEF00EFB103344EA034400FB0CFCE6
:100AB000A44509D92C1900F1FF3380F00781A44522
:100AC00040F2048102382C4440EA0740A4EB0C04B5
:100AD00000271EB1D4400023C6E900433946BDE8D3
:100AE000F0878B4209D9002E00F0EB800027C6E981
:100AF000000138463946BDE8F087B3FA83F7002F86
:100B000047D18B4202D3824200F2FA80841A61EB11
:100B1000030301209846002EE0D0C6E90048DDE737
:100B200002B9FFDEB2FA82F2002A40F08F80491B40
:100B30004FEA154E1FFA85F80127B1FBFEFC230C86
:100B40000EFB1C1143EA014308FB0CF1994207D943
:100B5000EB180CF1FF3002D2994200F2CD808446AE
:100B6000591AA3B2B1FBFEF00EFB101443EA044481
:100B700008FB00F8A04507D92C1900F1FF3302D279
:100B8000A04500F2B6801846A4EB080440EA0C40E9
:100B90009FE7C7F1200CBB4022FA0CFE4EEA030E81
:100BA00001FA07F420FA0CF521FA0CF34FEA1E487B
:100BB0002543B3FBF8F92C0C08FB19331FFA8EFA06
:100BC00044EA034309FB0AF49C4202FA07F200FAE2
:100BD00007F10BD91EEB030309F1FF3080F087808A
:100BE0009C4240F28480A9F1020973441B1BADB200
:100BF000B3FBF8F008FB103345EA034400FB0AFAA4
:100C0000A24508D91EEB040400F1FF336BD2A245C4
:100C100069D90238744440EA0940A0FB0289A4EB78
:100C20000A044C45C2464B4654D351D0002E69D0DD
:100C3000B1EB0A0564EB030404FA0CFCFD40FC4034
:100C40004CEA0505C6E90054002747E7C2F1200336
:100C500020FA03F7954001FA02F021FA03F34FEA74
:100C6000154E3843010CB3FBFEF71FFA85F80EFB57
:100C7000173341EA034107FB08F38B4204FA02F4FD
:100C800007D9691807F1FF3C2FD28B422DD9023FBB
:100C90002944CB1A81B2B3FBFEF00EFB103341EABC
:100CA000034100FB08F38B4207D9691800F1FF3CB0
:100CB00017D28B4215D902382944C91A40EA07478E
:100CC0003BE73746304609E70746E7E61846FBE6C6
:100CD0004145ABD2B8EB020A69EB0E02013813466C
:100CE000A4E76046E9E7184695E76746D1E78146FD
:100CF0007CE702382C4447E7ACF1020C2B442FE789
:100D0000384608E73746E9E6704700BF034613F860
:100D1000012B002AFBD1181A01387047000000008F
:100D200001F0FF01102A2BDB10F0070F08D010F89C
:100D3000013B013A8B422DD010F0070F42B3F6D1A0
:100D4000F0B441EA012141EA014122F007047FF0B9
:100D500000070023F0E80256083C85EA010586EA10
:100D6000010685FA47F5A3FA87F586FA47F6A5FA4C
:100D700087F68EB9EED1F0BC01F0FF0102F0070258
:100D800032B110F8013B013A83EA010313B1F8D103
:100D90000020704701387047002D06BF35460338E4
:100DA000073815F0010F07D1013015F4807F02BF1D
:100DB000013015F4C03F0130F0BC0138704700BF6E
:100DC0004FF0FF3C06E000BF4FF0010C02E000BF17
:100DD0004FF0010C4DF804CD4FEA410C7FEA6C5CFA
:100DE0004FEA430C18BF7FEA6C5C1BD001B050EA9D
:100DF000410C0CBF52EA430C91EA030F02BF90EA88
:100E0000020F0020704710F1000F91EA030F58BF46
:100E1000994208BF90422CBFD8176FEAE37040F0A8
:100E2000010070474FEA410C7FEA6C5C02D150EA46
:100E3000013C07D14FEA430C7FEA6C5CD6D152EA01
:100E4000033CD3D05DF8040B704700BF84461046C6
:100E500062468C461946634600E000BF01B5FFF7C5
:100E6000B7FF002848BF10F1000F01BD4DF808ED95
:100E7000FFF7F4FF0CBF012000205DF808FB00BF66
:100E80004DF808EDFFF7EAFF34BF012000205DF8C0
:100E900008FB00BF4DF808EDFFF7E0FF94BF01200D
:100EA00000205DF808FB00BF4DF808EDFFF7CEFF0E
:100EB00094BF012000205DF808FB00BF4DF808ED4D
:100EC000FFF7C4FF34BF012000205DF808FB00BF1E
:100ED0004FEA410C7FEA6C5C02D150EA013C0AD136
:100EE0004FEA430C7FEA6C5C02D152EA033C02D128
:100EF0004FF0000070474FF0010070474FEA410289
:100F000012F5001215D211D56FF47873B3EB62525B
:100F100012D94FEAC12343F0004343EA505311F082
:100F2000004F23FA02F018BF404270474FF0000014
:100F3000704750EA013005D111F0004008BF6FF052
:100F4000004070474FF00000704700BF10B50446E6
:100F5000094B1868094BA3FB0030800900F0F4FC32
:100F600008B1012010BD002221464FF0FF3000F0F3
:100F7000B7FC0020F6E700BF08000020D34D621048
:100F800010B5094A136843F480731360032000F01E
:100F900095FC0F20FFF7DAFF10B10124204610BDA9
:100FA000044605F027F9F9E700200240024A1368D9
:100FB00001331360704700BF14400020014B1868D4
:100FC000704700BF1440002030B583B00023019368
:100FD000002800F0F5800446436D03B323689A6847
:100FE00012F0005F05D09A6822F0204222F03F0202
:100FF0009A602268936813F0805F1DD1936823F094
:10100000104323F03F0343F0805393606D4B1B6804
:101010009B096D4AA2FB03239B09019309E005F09C
:1010200031F90023A36584F85030D7E7019B013BD9
:101030000193019B002BF9D123689A6812F0805F1D
:1010400040F08980626D42F010026265A26D42F04C
:101050000102A26501209A6812F0040F7DD00121DF
:10106000626D12F0100F40F0A480002940F0A180C2
:10107000626D22F4817242F0020262659B6813F095
:10108000010F1BD1514B9B6813F0010F67D0012159
:101090004F4A926812F0010F63D001230B434D4A6F
:1010A000926812F0010F5ED00122134306D16368EB
:1010B00049498A6822F47C1213438B60627E636B19
:1010C00043EA4233E2681343A268134394F82020B2
:1010D00043EA0243012A48D0A26A22B102F47072A4
:1010E000E16A0A4313432168CD683C4A2A4013430E
:1010F000CB6023689A6812F0040F3BD001219A68F4
:1011000012F0080F38D00122B1B9AAB9217E94F8A3
:101110003020520042EA8131DA6822F4804222F023
:1011200002020A43DA6094F83830012B26D0226894
:10113000136923F0010313612369012B30D0226866
:10114000136B23F00F031363636D23F0030343F06A
:101150000103636532E000207DE7002180E7002184
:1011600096E700239AE700229FE7626A013A43EA82
:101170004243B1E70021C2E70022C5E721680B69BD
:1011800023F4FF6323F00403E26B256C2A43656CB0
:101190002A43A56C2A43134343F001030B61CBE7B9
:1011A00021680B6B23F00F03E269013A13430B63D1
:1011B000CAE7636D43F010036365012003B030BDDF
:1011C0000120FBE708000020632D3E0500000450CD
:1011D00000010450000204500003045007C0F0FF57
:1011E0002DE9F0413F4B9F6807F01F074369082B2B
:1011F0003BD057B1052F08D0092F06D0394B9B683B
:1012000013F4604F2BD1042605E00368DB6813F06C
:10121000010F1DD104260D460446FFF7CFFE804680
:1012200023681A68324222D1B5F1FF3FF8D0FFF7A8
:10123000C5FEA0EB0800A84201D8002DF0D1636DD7
:1012400043F004036365002384F85030032004E076
:10125000436D43F0200343650120BDE8F081436DF9
:1012600043F0200343650120F7E70826D3E7626DCA
:1012700042F400726265DA6812F4406F11D1627E46
:101280007AB91A6812F0080F0BD0626D22F48072DE
:101290006265626D12F4805F03D1626D42F00102FB
:1012A0006265114A934209D01A46934209D047B168
:1012B000052F06D0092F04D0D26803E0A2F5807272
:1012C000F3E7DA68082E06D012F4804F07D10C221B
:1012D0001A600020C1E708221A600020BDE7002044
:1012E000BBE700BF00030450000104500368186C02
:1012F00070470000F0B482B00022019290F85020B4
:10130000012A00F010820346012280F85020026872
:10131000926812F0040F0AD0426D42F0200242653A
:101320000120002283F8502002B0F0BC70474A68C8
:10133000052A09D8023A032A00F28D80DFE802F07C
:10134000028184870C224A601E684D680C68303622
:101350002A0A920002F00C02B05805F01F051F2760
:10136000AF4020EA0700C4F38464AC402043B0508F
:101370001A68906810F0040F70D00120946814F07F
:10138000080F6DD0012450BB4CBB0E688C68143222
:10139000700E800000F004001558C6F304560727AD
:1013A000B74025EA0705B4402C43145048691C682F
:1013B000E268C2F3C102520000FA02F20D69042D84
:1013C00050D00E68603454F82570B448384006F0A8
:1013D000F8463243104340F0004044F825001868B6
:1013E000826812F0010F15D10A68CD68D0F8B040BC
:1013F000C2F3120624EA060405F01806A84DF540CB
:101400002A40C2F312022243C0F8B020C868A54A9D
:1014100090427AD00A68A4490A4200F08081A34928
:10142000896801F0E074A248824200F00C81A14872
:10143000824200F04981A048824200F05D81002094
:101440006FE712224A607FE718224A607CE74FF478
:1014500080724A6078E706224A6075E700208DE7CF
:10146000002490E7206EC0F384650A68C2F3120678
:101470005EBBC2F3846295422CD01C68606EC0F3E0
:1014800084650A68C2F3120646BBC2F384629542C1
:1014900029D01C68A06EC0F384650A68C2F31206E6
:1014A0002EBBC2F38462954226D01C68E06EC0F366
:1014B00084650A68C2F3120616BBC2F384629542C1
:1014C0008DD120F00040E06689E792FAA2F2B2FAEC
:1014D00082F2D0E720F000402066CEE792FAA2F236
:1014E000B2FA82F2D3E720F000406066D1E792FAC8
:1014F000A2F2B2FA82F2D6E720F00040A066D4E76A
:1015000092FAA2F2B2FA82F2D9E71D680A68C2F32F
:10151000120696BB900E013000F01F0009288CBF08
:1015200000200120002852D09EBB940E0134A40656
:1015300004F0F844B6BB900E013000F01F07012004
:10154000B8400443C6BB920E013202F01F0202EB08
:101550004202120522438C681435500E800000F0C0
:1015600004002E58C2F304520727974026EA0706C4
:1015700004FA02F232432A504CE792FAA2F0B0FA8F
:1015800080F0013000F01F0009288CBF00200120EE
:10159000C8E792FAA2F4B4FA84F40134A40604F081
:1015A000F844C7E792FAA2F0B0FA80F0013000F0F8
:1015B0001F070120B840C4E792FAA2F2B2FA82F201
:1015C000013202F01F0202EB42021205C2E7CEB95D
:1015D000940E0134A40604F0F844E6B9900E0130EC
:1015E00000F01F070120B8400443F6B9900E013007
:1015F00000F01F0000EB40021E3A120542F000729C
:101600002243A8E792FAA2F4B4FA84F40134A406BF
:1016100004F0F844E1E792FAA2F0B0FA80F0013069
:1016200000F01F070120B840DEE792FAA2F0B0FAFE
:1016300080F0013000F01F0000EB40021E3A12055E
:1016400042F00072DCE711F4000F7FF4F0AE1A688C
:101650001A498A4205D001F500718A4201D0002062
:101660005FE644F4000411498A6822F0E0721443F2
:101670008C60134A126892091249A1FB0212920966
:1016800002EB42029100019102E0019A013A0192BB
:10169000019A002AF9D1002043E600BF00F0FF03C1
:1016A000FFFF070000007F40000008800003045097
:1016B000000052C7000084CB0100008000000450ED
:1016C00008000020632D3E0511F0807F7FF4B3AE4B
:1016D0001A6816498A4205D001F500718A4201D084
:1016E00000201EE644F080721148816821F0E0710C
:1016F0000A438260002014E611F4800F11D11968AA
:101700000A4A914201D000200BE644F480020848C6
:10171000816821F0E0710A438260002001E6002028
:10172000FFE50020FDE50220FEE500BF00000450BB
:101730000003045038B503689A6812F0010F3DD1D8
:1017400099681F4A114209D0436D43F01003436565
:10175000836D43F001038365012030E004469A68FD
:1017600022F0004222F03F0242F001029A60FFF7AD
:1017700025FC054604E0FFF721FC401B022811D898
:1017800023681A6812F0010F16D19A6812F0010F3F
:10179000F1D19A6822F0004222F03F0242F00102A9
:1017A0009A60E8E7636D43F010036365A36D43F04F
:1017B0000103A365012002E0002000E0002038BD05
:1017C0003F00008038B53B4B9D6803689B6813F071
:1017D000040F6AD105F01F0590F85030012B67D037
:1017E0000446012380F85030FFF7A4FF0346002889
:1017F00057D1626D22F4706222F0010242F48072CD
:10180000626522682C498A422FD011468A4200D054
:101810001DB9616D21F480116165616D11F4805F06
:1018200026D0A16D21F00601A1651C2111600022C6
:1018300084F850202168204A91421CD00A469142E7
:101840001CD0DDB1052D19D0092D17D0616D41F4E3
:1018500080116165D26812F0007F27D0626D22F49A
:10186000405242F48052626520E0A1F58071CDE7DC
:101870000021A165D9E7A2F58072E0E7CA6812F0FD
:10188000007F05D0626D22F4405242F480526265BE
:101890008A6822F0004222F03F0242F004028A608D
:1018A00004E0002284F8502000E00223184638BDEE
:1018B0000223FBE70003045000010450074AD368E9
:1018C00023F4E0631B041B0C000200F4E0601843E7
:1018D00040F0BF6040F40030D060704700ED00E0A1
:1018E00030B4174BDB68C3F30223C3F10704042CA5
:1018F00028BF04241D1D062D18D9033B4FF0FF35CA
:1019000005FA04F421EA0401994005FA03F322EAF6
:101910000303194300280BDB0901C9B200F1604041
:1019200000F5614080F8001330BC70470023E5E704
:1019300000F00F000901C9B2024B1954F4E700BFCF
:1019400000ED00E014ED00E00138B0F1807F0AD234
:10195000064B5860064AF02182F823100020986058
:1019600007221A6070470120704700BF10E000E0B6
:1019700000ED00E0042805D0054A136823F00403B5
:1019800013607047024A136843F004031360704702
:1019900010E000E0F0B482B0002341E0D0F82CC0A9
:1019A0002CEA040CC6F3C0049C4044EA0C04C46254
:1019B00086E0062400E00024B4403C430235664E35
:1019C00046F82540654C2568D44304EA05064F686F
:1019D00017F4803F01D042EA0506604D2E606D6825
:1019E00004EA05064F6817F4003F01D042EA0506F5
:1019F0005A4D6E60AD6804EA05064F6817F4801F03
:101A000001D042EA0506554DAE60ED682C404E68A7
:101A100016F4001F01D042EA0504504AD460013395
:101A20000A6832FA03F400F0938001249C402240BB
:101A3000F5D04D68022D01D0122D10D1DE080836E8
:101A400050F826C003F00705AF000F25BD402CEA73
:101A5000050C0D69BD4045EA0C0540F826500668A6
:101A60005F000325BD40ED4305EA060C4E6806F015
:101A70000306BE4046EA0C0606604E6806F1FF3CCF
:101A8000BCF1010F03D9112E01D0122E11D186689D
:101A900005EA060CCE68BE4046EA0C06866046683B
:101AA00026EA040C4E68C6F300169E4046EA0C0671
:101AB00046604E6806F0030CBCF1030F3FF46EAFB6
:101AC000C46825408C68BC402C43C4604C6814F04A
:101AD000805FA4D0224C256E45F001052566246E5A
:101AE00004F001040194019C9D08AE1C1A4C54F8AA
:101AF000267003F00304A6000F24B44027EA04076D
:101B0000B0F1904F3FF457AF164CA04216D004F5F9
:101B10008064A04214D004F58064A04212D004F581
:101B20008064A04210D004F58064A0420ED004F579
:101B30008064A0423FF43DAF07243DE701243BE72A
:101B4000022439E7032437E7042435E7052433E783
:101B500002B0F0BC704700BF00000140000401402B
:101B600000100240000400480369194201D100201E
:101B70007047012070470AB98162704781617047E0
:101B8000002859D010B5044690F84130002B43D0BE
:101B9000242384F841302268136823F00103136082
:101BA0006368226823F0706313612268936823F4EA
:101BB00000439360E368012B33D0A368226843F4A9
:101BC00004439360E368022B31D02268536843F0EA
:101BD000007343F4004353602268D36823F4004346
:101BE000D360236962691343A169226843EA012330
:101BF000D360E369216A22680B431360226813688B
:101C000043F00103136000206064202384F8413016
:101C1000206384F8420010BD80F8403004F058FB87
:101C2000B6E7A368226843F400439360CAE72368D9
:101C30004FF400625A60C8E70120704790F84130C5
:101C4000DBB2202B24D190F84030012B22D001238D
:101C500080F84030242380F841300268136823F074
:101C6000010313600268136823F480531360026851
:101C70001368194311600268136843F0010313608D
:101C8000202380F84130002380F840301846704708
:101C9000022070470220704790F84130DBB2202BC1
:101CA00022D190F84030012B20D0012380F8403021
:101CB000242380F841300268136823F00103136085
:101CC0000268136823F4706343EA0121116002681B
:101CD000136843F001031360202380F84130002390
:101CE00080F8403018467047022070470220704745
:101CF000024B186800F4C060704700BF00700040DD
:101D0000B0F5007F0FD01F4B1B6803F4C063B3F521
:101D1000806F34D01B4A136823F4C06343F480639C
:101D2000136000207047174B1B6803F4C063B3F5C2
:101D3000007F22D0134A136823F4C06343F4007376
:101D40001360114B1A68322303FB02F30F4AA2FB04
:101D500003239B0C013300E0013B0A4A526912F451
:101D6000806F01D0002BF7D1064B5B6913F4806FB5
:101D700001D10020704703207047002070470020E9
:101D8000704700BF007000400800002083DE1B4346
:101D900030B583B00546204B9B6D13F0805F0BD0B0
:101DA000FFF7A6FFB0F5007F17D0802D1FD82DD0EC
:101DB000702D2DD000211BE0174CA36D43F08053F4
:101DC000A365A36D03F080530193019BFFF790FF80
:101DD000A36D23F08053A365E4E7802D03D9A02DE4
:101DE00003D9022104E0002102E0012100E00321E7
:101DF0000A4A136823F007030B431360136803F0C8
:101E000007038B4206D0012003B030BD0221EFE76B
:101E10000121EDE70020F7E700100240002002401A
:101E2000314A9368D26802F0030213F00C030AD01F
:101E30000C2B06D0042B1FD0082B20D000200146ED
:101E400010E0012AF6D1284A126812F0080F0CD1CE
:101E5000254AD2F89420C2F30322244951F82210D3
:101E600043B100200C2B0DD070471F4A1268C2F3FB
:101E70000312F2E70846F5E71D480021F2E71D4886
:101E80000021EFE7184BDA6802F00302DB68C3F3C6
:101E900002130133022A0AD0032A1AD0B1FBF3F34A
:101EA000114AD068C0F3062000FB03F008E0104898
:101EB000B0FBF3F30C4AD068C0F3062000FB03F03C
:101EC000094BDB68C3F3416301335B00B0FBF3F004
:101ED000CAE70848B0FBF3F3034AD068C0F3062012
:101EE00000FB03F0ECE700BF001002402887000869
:101EF0000024F40000127A00002800F09082F0B56F
:101F000083B00446AC4B9D6805F00C05DE6806F016
:101F10000306036813F0100F5DD0E5B10C2D18D047
:101F2000A369002B00F0B780A34A136843F00103B4
:101F30001360FFF743F807469F4B1B6813F0020F2F
:101F400040F09680FFF73AF8C01B0228F4D903232B
:101F500071E2012EE4D1984B1B6813F0020F03D0FD
:101F6000A369002B00F05E82206A934B1B6813F07C
:101F7000080F5DD0904B1B6803F0F00398425ED9C8
:101F8000FFF706FF002840F04F828B4B1A6842F0A3
:101F900008021A601A6822F0F002216A0A431A60E5
:101FA0005A6822F47F42E16942EA01225A60FFF74F
:101FB00037FF814B9B68C3F30313804AD35C03F064
:101FC0001F03D8407E4B18600F20FEF7BFFF03466B
:101FD000002840F03082236813F0010F7AD0082DDA
:101FE0006FD00C2D6BD06368B3F5803F00F091800B
:101FF000B3F5A02F00F093806F4B1A6822F4803263
:102000001A601A6822F480221A606368002B00F0BC
:102010009380FEF7D3FF0746674B1B6813F4003F1E
:1020200058D1FEF7CBFFC01B6428F5D9032302E289
:10203000614BD3F894301B0903F0F0039EE75E4B2D
:102040001A6842F008021A601A6822F0F002216A47
:102050000A431A605A6822F47F42E16942EA012287
:102060005A60206AFFF794FE0028A0D00123E2E125
:10207000514B1A6842F008021A601A6822F0F00206
:10208000216A0A431A605A6822F47F42E16942EAEF
:1020900001225A609FE7484A136823F00103136046
:1020A000FEF78CFF0746444B1B6813F0020F92D0DB
:1020B000FEF784FFC01B0228F5D90323BBE1032EE2
:1020C00091D13D4B1B6813F4003F03D06368002B94
:1020D00000F0AC81236813F0020F4FD0042D3CD0E8
:1020E0000C2D38D0E368002B75D0334A136843F4C5
:1020F00080731360FEF762FF06462F4B1B6813F4D4
:10210000806F5FD1FEF75AFF801B0228F5D90323A9
:1021100091E1294A136843F48033136075E703F1B2
:102120008043A3F53C331A6842F480221A601A688F
:1021300042F480321A6068E7FEF740FF07461E4B04
:102140001B6813F4003FC5D0FEF738FFC01B64289E
:10215000F5D903236FE1022EC4D1174B1B6813F48A
:10216000806F03D0E368002B00F06281124A53684D
:1021700023F0F853216943EA01635360236813F0A5
:10218000080F53D06369002B39D00B4AD2F8943032
:1021900043F00103C2F89430FEF710FF0646064BE9
:1021A000D3F8943013F0020F40D1FEF707FF801BE5
:1021B0000228F4D903233EE10010024058870008AA
:1021C000080000209E4A536823F0F853216943EA2F
:1021D00001635360D2E79A4A136823F48073136053
:1021E000FEF7ECFE0646964B1B6813F4806FC5D0D5
:1021F000FEF7E4FE801B0228F5D903231BE1904A79
:10220000D2F8943023F00103C2F89430FEF7D6FEE2
:1022100006468B4BD3F8943013F0020F06D0FEF72E
:10222000CDFE801B0228F4D9032304E1236813F0B8
:10223000040F7AD0824B9B6D13F0805F0BD1804BE3
:102240009A6D42F080529A659B6D03F08053019322
:10225000019B012600E000267A4B1B6813F4807F67
:1022600026D0A368012B37D0052B3DD0744BD3F873
:10227000902022F00102C3F89020D3F8902022F0A1
:102280000402C3F89020A368002B3BD0FEF796FE13
:1022900007466B4BD3F8903013F0020F44D1FEF792
:1022A0008DFEC01B41F288339842F2D90323C2E06D
:1022B000644A136843F480731360FEF77FFE074699
:1022C000604B1B6813F4807FCBD1FEF777FEC01BF9
:1022D0000228F5D90323AEE0594AD2F8903043F0F2
:1022E0000103C2F89030CEE7554BD3F8902042F06E
:1022F0000402C3F89020D3F8902042F00102C3F802
:102300009020C0E7FEF75AFE07464D4BD3F89030B9
:1023100013F0020F08D0FEF751FEC01B41F28833C4
:102320009842F2D9032386E066BBA36A002B00F033
:1023300081800C2D00F08280022B29D0404B1A683E
:1023400022F080721A601B6813F0205F04D13C4AAF
:10235000D36823F00303D360394AD36823F088732A
:1023600023F48033D360FEF729FE0446344B1B6808
:1023700013F0007F51D0FEF721FE001B0228F5D993
:10238000032358E02E4A936D23F080539365CCE7E6
:102390002B4A136823F080731360FEF70FFE054687
:1023A000274B1B6813F0007F06D0FEF707FE401B8B
:1023B0000228F5D903233EE0236B5A1E636B1B02F0
:1023C00043EA0213A26B120943EA4243E26A13434F
:1023D000E26B5208013A43EA4253226C5208013A36
:1023E00043EA4263164AD360136843F08073136074
:1023F000D36843F08073D360FEF7E0FD0446104BD2
:102400001B6813F0007F06D1FEF7D8FD001B0228E1
:10241000F5D903230FE000230DE000230BE0012397
:1024200018467047012306E0012304E0012302E07F
:10243000012300E00023184603B0F0BD0123FAE7B2
:102440000010024000700040002800F09A8070B533
:1024500004464E4B1B6803F007038B420CD24B4AD9
:10246000136823F007030B431360136803F007039B
:102470008B4201D0012070BD0D46236813F0010F7F
:1024800039D06368032B09D0022B26D063BB404AA6
:10249000126812F0020F06D10120ECE73C4A1268E4
:1024A00012F0007F6FD03A498A6822F0030213438A
:1024B0008B60FEF783FD0646354B9B6803F00C03EB
:1024C0006268B3EB820F16D0FEF778FD801B41F2F5
:1024D00088339842F0D90320CDE72D4A126812F4D0
:1024E000003FE0D10120C6E7294A126812F4806F4C
:1024F000D9D10120BFE7236813F0020F06D0244A88
:10250000936823F0F003A1680B4393601F4B1B6893
:1025100003F00703AB420CD91C4A136823F00703EE
:102520002B431360136803F00703AB4201D0012073
:10253000A1E7236813F0040F06D0154A936823F42B
:10254000E063E1680B439360236813F0080F07D042
:102550000F4A936823F46053216943EAC1039360EF
:10256000FFF75EFC0A4B9B68C3F30313094AD35C75
:1025700003F01F03D840084B18600F20FEF7E6FC5D
:1025800079E701207047012075E700BF0020024075
:10259000001002405887000808000020014B18680E
:1025A000704700BF0800002008B5FFF7F7FF054B94
:1025B0009B68C3F30223044AD35C03F01F03D84093
:1025C00008BD00BF001002406887000808B5FFF78B
:1025D000E5FF054B9B68C3F3C223044AD35C03F0B9
:1025E0001F03D84008BD00BF0010024068870008E4
:1025F000F8B55A4BDB6813F0030F18D0574BDB6864
:1026000003F003030268934202D001252846F8BD77
:10261000002A00F0A080514BDB68C3F302130133A2
:102620004268934201D00125F0E700251AE00368D3
:10263000022B59D0032B5ED0012B01D001250FE0D6
:10264000464A126812F0020F61D0444DEA6822F047
:1026500073024468013C43EA04131343EB60002512
:10266000002DD3D10F4604463C4A136823F0806303
:102670001360FEF7A3FC0646384B1B6813F0006F8F
:1026800005D0FEF79BFC801B0228F5D90325002D01
:10269000BCD1002F3DD131490B6923F41F3323F402
:1026A0004073A068E2681209520442EA0022134310
:1026B0000B612A4A136843F080631360FEF77EFCC7
:1026C0000646264B1B6813F0006F05D1FEF776FC1B
:1026D000801B0228F5D90325002D97D11F4A1369C5
:1026E000A1690B43136191E71C4A126812F4806FD1
:1026F000ABD10125B4E7194A126812F4003FA4D106
:10270000164A126812F4802F9FD10125A8E70125EF
:10271000A6E7012F0FD01148026922F0C06222F40F
:10272000FE42A16863695B08013B5B0643EA012343
:1027300013430361BDE70948026922F4C00222F491
:10274000FE42A16823695B08013B5B0543EA012364
:1027500013430361ADE7012558E700BF00100240B5
:10276000F8B5514BDB6813F0030F18D04E4BDB6804
:1027700003F003030268934202D001252846F8BD06
:10278000002A00F08E80484BDB68C3F3021301334C
:102790004268934201D00125F0E700251AE0036862
:1027A000022B59D0032B5ED0012B01D001250FE065
:1027B0003D4A126812F0020F61D03B4DEA6822F0E8
:1027C00073024468013C43EA04131343EB600025A1
:1027D000002DD3D10F460446334A136823F08053AB
:1027E0001360FEF7EBFB06462F4B1B6813F0005FF0
:1027F00005D0FEF7E3FB801B0228F5D90325002D49
:10280000BCD1002F3DD128494B6923F41F3323F459
:102810004073A068E2681209520442EA002213439E
:102820004B61214A136843F080531360FEF7C6FBE7
:1028300006461D4B1B6813F0005F05D1FEF7BEFB7B
:10284000801B0228F5D90325002D97D1164A53691C
:1028500061690B43536191E7134A126812F4806F68
:10286000ABD10125B4E7104A126812F4003FA4D19D
:102870000D4A126812F4802F9FD10125A8E7012587
:10288000A6E70948426922F0C06222F4FE42A1682C
:1028900023695B08013B5B0643EA01231343436161
:1028A000BFE701256AE700BF001002402DE9F041B3
:1028B00082B00446036813F4006F2FD0436EB3F563
:1028C000800F25D008D9B3F5000F10D0B3F5400F15
:1028D00040F09980002610E0002B40F09480002109
:1028E0000430FFF785FE06463EB1374618E05E4AE3
:1028F000D36843F48033D36000265B4AD2F8883033
:1029000023F44003616E0B43C2F88830002707E0D0
:1029100000212030FFF724FF0646E5E700273E466A
:10292000236813F4805F15D0A36EB3F1807F7AD053
:102930006CD9B3F1007F70D0B3F1407F7AD1002E13
:102940007BD1494AD2F8883023F04073A16E0B4303
:10295000C2F88830236813F4003F00F08E80424BA9
:102960009B6D13F0805F6AD13F4B9A6D42F08052AD
:102970009A659B6D03F080530193019B4FF0010812
:102980003A4A136843F480731360FEF717FB054659
:10299000364B1B6813F4807F05D1FEF70FFB401BFD
:1029A0000228F5D90326002E62D12F4BD3F89030A0
:1029B00013F4407316D0D4F884209A4212D02A4AD5
:1029C000D2F8903023F44073D2F8901041F4803163
:1029D000C2F89010D2F8901021F48031C2F8901013
:1029E000C2F8903013F0010F2CD1002E40F043813B
:1029F0001D4AD2F8903023F44073D4F884100B436E
:102A0000C2F8903035E001273E4689E793B90021AE
:102A1000201DFFF7EDFD064691E7134AD36843F406
:102A20008033D3608BE7002104F12000FFF798FE8C
:102A3000064684E701273E468CE737468AE74FF093
:102A400000089DE7FEF7BAFA0546074BD3F8903029
:102A500013F0020FC9D1FEF7B1FA401B41F28833DF
:102A60009842F2D90326C0E70010024000700040EF
:102A70003746B8F1000F40F00081236813F0010FD2
:102A800008D09D4AD2F8883023F00303A16B0B4392
:102A9000C2F88830236813F0020F08D0964AD2F8A3
:102AA000883023F00C03E16B0B43C2F888302368B5
:102AB00013F0040F08D0904AD2F8883023F0300386
:102AC000216C0B43C2F88830236813F0080F08D03C
:102AD000894AD2F8883023F0C003616C0B43C2F8F6
:102AE0008830236813F0100F08D0834AD2F888305A
:102AF00023F44073A16C0B43C2F88830236813F0B1
:102B0000200F08D07C4AD2F8883023F44063E16C6F
:102B10000B43C2F88830236813F4007F08D0764A4C
:102B2000D2F8883023F44023E16D0B43C2F888309B
:102B3000236813F4806F08D06F4AD2F8883023F4EA
:102B40004013216E0B43C2F88830236813F0400F06
:102B500008D0694AD2F8883023F44053216D0B43E2
:102B6000C2F88830236813F0800F08D0624AD2F888
:102B7000883023F44043616D0B43C2F888302368EA
:102B800013F4807F08D05C4AD2F8883023F44033B5
:102B9000A16D0B43C2F88830236813F4005F0FD097
:102BA000554AD2F8883023F04063E16E0B43C2F8F7
:102BB0008830E36EB3F1006F65D0B3F1806F67D0FA
:102BC000236813F4002F0FD04B4AD2F8883023F03B
:102BD0004063216F0B43C2F88830236FB3F1006F5D
:102BE0005ED0B3F1806F60D0236813F4802F0FD0D4
:102BF000414AD2F8883023F04063616F0B43C2F83A
:102C00008830636FB3F1006F57D0B3F1806F59D044
:102C1000236813F4804F0FD0374AD2F8883023F05E
:102C20004053A16F0B43C2F88830A36FB3F1805FAC
:102C300050D0B3F1005F55D0236813F4004F08D093
:102C40002D4AD2F8883023F08043E16F0B43C2F85D
:102C50008830236813F4803F09D0274AD2F888309F
:102C600023F00043D4F880100B43C2F88830384674
:102C700002B0BDE8F0813746FBE61F4A936D23F0B2
:102C800080539365F9E6D36843F48013D36097E7E4
:102C90000121201DFFF7ACFC002891D007468FE7EB
:102CA000D36843F48013D3609EE70121201DFFF712
:102CB0009FFC002898D0074696E7D36843F480131A
:102CC000D360A5E70121201DFFF792FC00289FD0CB
:102CD00007469DE70221201DFFF78AFC0028ABD0A4
:102CE0000746A9E7022104F12000FFF739FD00287B
:102CF000A2D00746A0E700BF00100240F8B5054685
:102D00000F4616461C462B689B6837EA03030CBF28
:102D100001230023B34237D0B4F1FF3FF3D0FEF7D5
:102D20004DF9069BC01AA04201D2002CEBD12A68B3
:102D3000536823F0E00353606B68B3F5827F0BD0D8
:102D4000AB6AB3F5005F14D0012385F85D30002332
:102D500085F85C30032018E0AB68B3F5004F02D073
:102D6000B3F5806FECD12A68136823F04003136039
:102D7000E6E72A68136823F4005313602A6813688F
:102D800043F400531360DFE70020F8BDF8B50746B1
:102D90000C4615461E4602E0B6F1FF3F0BD13A68DD
:102DA00093682340AB423BD0B4F5C06FF4D1002D03
:102DB000F2D1137BF0E7FEF701F9069BC01AB0428F
:102DC00001D2002EEBD13A68536823F0E003536040
:102DD0007B68B3F5827F0BD0BB6AB3F5005F14D07C
:102DE000012387F85D30002387F85C30032018E06A
:102DF000BB68B3F5004F02D0B3F5806FECD13A68F1
:102E0000136823F040031360E6E73A68136823F47D
:102E1000005313603A68136843F400531360DFE70C
:102E20000020F8BD70B582B004460D4616460092EB
:102E30000B4600224FF4C051FFF7A8FFB8B9009627
:102E40002B46002280212046FFF758FFB8B9009694
:102E50002B4600224FF4C0612046FFF797FF034640
:102E600050B1236E43F020032366032304E0236E56
:102E700043F0200323660323184602B070BD236E7F
:102E800043F0200323660323F6E770B582B00446BF
:102E90000D4616464368B3F5827F0FD000962B4649
:102EA000002280212046FFF729FF034698B9626877
:102EB000B2F5827F15D0184602B070BD8368B3F5B5
:102EC000004F02D0B3F5806FE8D12268136823F079
:102ED00040031360E2E7236E43F0200323660323DD
:102EE000E9E7A268B2F5004F02D0B2F5806FE2D1F7
:102EF00000962B4600224FF4C0612046FFF746FFA4
:102F000003460028D7D0236E43F020032366032313
:102F1000D1E7002853D010B504460023836290F80F
:102F20005D30002B40D0022384F85D3022681368A6
:102F300023F040031360E368B3F5E06F39D9002252
:102F4000B3F5706F04D0B3F5E06F01D00021A1623A
:102F5000216B21B9B3F5E06F2ED902232363636897
:102F6000A1680B4321690B4361690B43A16901F41B
:102F700000710B43E1690B43216A0B43A06A21688E
:102F800003430B60638B03F00403616A0B43616BC3
:102F90000B43E1680B43216813434B60002020661C
:102FA000012384F85D3010BD80F85C3003F0BAF97D
:102FB000B9E74FF48052C3E701232363CFE7012031
:102FC00070472DE9F843DDF8208090F85C40012C33
:102FD00000F05C811D4617460E460446012380F82A
:102FE0005C30FDF7EBFF814694F85D00C0B263688A
:102FF000012814D0B3F5827F09D00223012284F87E
:103000005D20002284F85C201846BDE8F883A368A0
:10301000002B40F02D81042801D00223EEE7002E82
:1030200000F02881002F00F02781002D00F026817C
:1030300094F85D30DBB2042B02D0052384F85D30B8
:10304000002323662764A4F84650A4F84450A663DE
:10305000E587A587E3642365E368B3F5E06F01D8EE
:10306000012D22D92268536823F4805353602368CA
:103070001A6812F0400F03D11A6842F040021A6039
:10308000E368B3F5E06F56D963680BB1012D0AD13F
:10309000A26B23681288DA60A36B0233A363E38F09
:1030A000013B9BB2E387012525E02268536843F486
:1030B00080535360DBE723689A6812F0010F10D049
:1030C000B4F8462092B262B1DA68236C1A80236C9D
:1030D00002332364B4F84630013B9BB2A4F8463077
:1030E0000125FDF76BFFA0EB0900404503D3B8F1C4
:1030F000FF3F40F0C580E38F9BB22BB9B4F8463058
:103100009BB2002B00F0A78023689A6812F0020F90
:10311000D1D0E28F92B2002ACDD0002DCBD0A26BBD
:103120001288DA60A36B0233A363E38F013B9BB287
:10313000E3870025BFE763680BB1012D0ED1E38F54
:103140009BB2012B0CD9A26B23681288DA60A36BA7
:103150000233A363E38F023B9BB2E387012547E081
:10316000A26B236812781A73A36B0133A363E38FF6
:10317000013B9BB2E387F1E7E28F92B2012A0BD9C0
:10318000A26B1288DA60A36B0233A363E38F023B66
:103190009BB2E38700253CE0A26B12781A73A36B05
:1031A0000133A363E38F013B9BB2E387002530E04B
:1031B0002268536843F48053536001250CE0226C6D
:1031C0001B7B1370236C01332364B4F84630013B3E
:1031D0009BB2A4F846300125FDF7F0FEA0EB0900F4
:1031E000404502D3B8F1FF3F4CD1B8F1000F4BD0AE
:1031F000E38F9BB21BB9B4F846309BB25BB3236834
:103200009A6812F0020F04D0E28F92B20AB1002D38
:10321000B2D123689A6812F0010FDDD0B4F84620CD
:1032200092B2002AD8D0B4F8462092B2012AC6D968
:10323000DA68236C1A80236C02332364B4F84630B6
:10324000023B9BB2A4F84630B4F846309BB2012B47
:10325000AED90125C0E74A4641462046FFF7E2FDC8
:10326000034600283FF4CAAE202323660123C5E6A7
:103270000223C3E60123C1E60123BFE60123BDE625
:103280000323BBE60323B9E60323B7E60223BBE629
:103290002DE9F04182B004460F4690461D46436832
:1032A000B3F5827F19D094F85C30012B00F0B88020
:1032B000012384F85C30FDF781FE064694F85D300A
:1032C000DBB2012B15D00220012384F85D300023EE
:1032D00084F85C3002B0BDE8F0818368002BE2D155
:1032E000042380F85D30009513460A46FFF769FE17
:1032F000F0E7002F00F08680B8F1000F00F0848026
:10330000042384F85D30002323662764A4F84480F6
:10331000A4F84680A363A387E387E3642365E36897
:10332000B3F5E06F16D92268536823F480535360D5
:10333000A368B3F5004F13D023681A6812F0400F4A
:1033400003D11A6842F040021A60E368B3F5E06FF7
:1033500016D935E02268536843F480535360E7E799
:103360002268136823F480431360E5E7FDF726FE27
:10337000801BA84202D3B5F1FF3F47D1002D47D0B3
:10338000B4F846309BB2002B30D023689A6812F014
:10339000010FEBD0226C1B7B1370236C0133236471
:1033A000B4F84630013B9BB2A4F84630E8E7FDF79D
:1033B00005FE801BA84202D3B5F1FF3F2AD15DB3C1
:1033C000B4F846309BB28BB123689A6812F0010FB3
:1033D000EDD0DA68236C1A80236C02332364B4F8CE
:1033E0004630013B9BB2A4F84630E9E73246294615
:1033F0002046FFF74AFD08B120232366236E6BB9F0
:10340000002061E701205FE701205DE703205BE723
:10341000032059E7032057E7032055E7012053E72E
:10342000022057E730B4036A23F001030362036A02
:103430004468826922F4803222F073020D682A43C4
:1034400023F002038D682B431C4DA8420FD005F5D5
:103450000065A8420BD005F54065A84207D005F5E8
:103460008065A84203D005F58065A84205D123F008
:103470000803CD682B4323F00403104DA8420FD05E
:1034800005F50065A8420BD005F54065A84207D0B8
:1034900005F58065A84203D005F58065A84205D1F1
:1034A00024F440754C692C438D692C43446082613F
:1034B0004A684263036230BC704700BF002C014081
:1034C00030B4036A23F480730362036A4468C269F8
:1034D00022F4803222F073020D682A4323F4007331
:1034E0008D6843EA0523184DA84203D005F5006511
:1034F000A84206D123F40063CD6843EA052323F4F0
:103500008063114DA8420FD005F50065A8420BD08D
:1035100005F54065A84207D005F58065A84203D0AF
:1035200005F58065A84207D124F440544D6944EA6A
:1035300005148D6944EA05144460C2614A68C26397
:10354000036230BC704700BF002C014030B4036AF6
:1035500023F480530362036A4468C26922F08072D4
:1035600022F4E6420D6842EA052223F400538D68F6
:1035700043EA05330F4DA8420FD005F50065A84278
:103580000BD005F54065A84207D005F58065A84237
:1035900003D005F58065A84204D124F480444D6928
:1035A00044EA85144460C2614A680264036230BC24
:1035B000704700BF002C014030B4036A23F480330D
:1035C0000362036A4468426D22F4803222F0700282
:1035D0000D682A4323F400338D6843EA05430F4DF9
:1035E000A8420FD005F50065A8420BD005F540654F
:1035F000A84207D005F58065A84203D005F580658F
:10360000A84204D124F480344D6944EA052444607E
:1036100042654A688265036230BC7047002C0140F5
:1036200030B4036A23F480130362036A4468426D72
:1036300022F0807222F4E0420D6842EA052223F46F
:1036400000138D6843EA05530F4DA8420FD005F5CE
:103650000065A8420BD005F54065A84207D005F5E6
:103660008065A84203D005F58065A84204D124F402
:1036700080244D6944EA8524446042654A68C265F5
:10368000036230BC704700BF002C0140704700004F
:103690000368304A904212D0B0F1804F0FD0A2F5AB
:1036A000943290420BD002F58062904207D002F52E
:1036B0008062904203D002F59432904203D123F00D
:1036C00070034A681343234A90421ED0B0F1804FE2
:1036D0001BD0A2F59432904217D002F5806290423E
:1036E00013D002F5806290420FD002F594329042DE
:1036F0000BD002F54062904207D002F58062904202
:1037000003D002F58062904203D123F44073CA686B
:10371000134323F080034A69134303608B68C36239
:103720000B6883620B4B98420FD003F500639842FD
:103730000BD003F54063984207D003F580639842AD
:1037400003D003F58063984201D10B690363012321
:1037500043617047002C0140A8B110B5044690F8B1
:103760003D305BB1022384F83D30211D2068FFF716
:103770008FFF012384F83D30002010BD80F83C30DD
:10378000FFF784FFEEE701207047000030B4036AC2
:1037900023F010030362036A4468826922F0807296
:1037A00022F4E6420D6842EA052223F020038D68E8
:1037B00043EA0513174DA84203D005F50065A8425A
:1037C00006D123F08003CD6843EA051323F04003BC
:1037D000104DA8420FD005F50065A8420BD005F5A5
:1037E0004065A84207D005F58065A84203D005F5DD
:1037F0008065A84207D124F440644D6944EA8504F9
:103800008D6944EA8504446082614A688263036288
:1038100030BC7047002C014038B590F83C30012B8B
:1038200000F092800D460446012380F83C300223CC
:1038300080F83D30142A1ED8DFE802F00B1D1D1D54
:10384000241D1D1D381D1D1D4B1D1D1D5F1D1D1D16
:1038500072000068FFF7E6FD2268936943F00803F1
:1038600093612268936923F004039361226893694A
:1038700029690B439361012384F83D30002084F8CB
:103880003C0038BD0068FFF781FF2268936943F46C
:10389000006393612268936923F4806393612268D3
:1038A0009369296943EA01239361E4E70068FFF71C
:1038B00007FE2268D36943F00803D3612268D36905
:1038C00023F00403D3612268D36929690B43D361D0
:1038D000D1E70068FFF73AFE2268D36943F400633A
:1038E000D3612268D36923F48063D3612268D369EA
:1038F000296943EA0123D361BDE70068FFF75CFE55
:103900002268536D43F0080353652268536D23F01A
:10391000040353652268536D29690B435365AAE775
:103920000068FFF77DFE2268536D43F40063536522
:103930002268536D23F4806353652268536D2969AF
:1039400043EA0123536596E702209AE710B401F099
:103950001F01012303FA01F4036A23EA040303624B
:10396000036A8A40134303625DF8044B704700000A
:1039700010B5044601220068FFF7E8FF2368144AE7
:1039800093420FD002F5006293420BD002F54062E1
:10399000934207D002F58062934203D002F5806221
:1039A000934203D15A6C42F400425A6422689168EF
:1039B000084B0B40062B09D09168064B0B40B3F522
:1039C000803F03D0136843F001031360002010BD53
:1039D000002C01400700010090F83C30012B28D05A
:1039E00030B4012380F83C30022380F83D30026877
:1039F00053689568104CA24203D004F50064A242BB
:103A000003D123F470034C68234323F070030C6844
:103A1000234325F08004896821435360036899603B
:103A2000012380F83D30002380F83C30184630BC3C
:103A300070470220704700BF002C014090F83C30D6
:103A4000012B3ED010B4012380F83C30CB6823F426
:103A500040738A68134323F480634A68134323F452
:103A600000630A68134323F480530A69134323F461
:103A700000534A69134323F480438A6A134323F4AF
:103A800070238A6943EA024302680F4CA24203D0C2
:103A900004F50064A2420CD123F470034C6A43EA9B
:103AA000045323F08073CC69234323F00073096A25
:103AB0000B435364002380F83C3018465DF8044BF8
:103AC00070470220704700BF002C01402DE9F048EC
:103AD0000446016883680269134342691343C2695B
:103AE00013430868A24A024013430B6022685368DC
:103AF00023F44053E1680B435360A16922689D4B56
:103B00009A4201D0236A1943936823F430630B432C
:103B100093602368984A934227D0984A934238D0BA
:103B2000974A93424ED0974A934261D0964A934225
:103B300074D0904A934200F08A8010258D4A9342B7
:103B400000F0AA80E369B3F5004F00F03581082D3D
:103B500000F2BF81DFE815F07F0195019F01BD01F3
:103B6000AA01BD01BD01BD01B40102F55842D2F860
:103B7000882002F00302032A09D8DFE802F00204D9
:103B800081060125DAE70425D8E70825D6E71025C0
:103B9000D4E702F5E632D2F8882002F00C020C2AB3
:103BA0000ED8DFE802F0070D0D0D090D0D0D6F0D9C
:103BB0000D0D0B000025C1E70425BFE70825BDE773
:103BC0001025BBE702F5E432D2F8882002F030027B
:103BD000102A09D005D9202A56D0302A06D1082526
:103BE000ACE71AB90025A9E70425A7E71025A5E742
:103BF00002F5E232D2F8882002F0C002402A09D051
:103C000005D9802A42D0C02A06D1082596E71AB9DC
:103C1000002593E7042591E710258FE702F5E032B0
:103C2000D2F8882002F44072B2F5807F0BD007D919
:103C3000B2F5007F2CD0B2F5407F06D108257DE794
:103C40001AB900257AE7042578E7102576E702F50A
:103C5000C832D2F8882002F44062B2F5806F0BD0EF
:103C600007D9B2F5006F15D0B2F5406F06D108251F
:103C700064E71AB9002561E704255FE710255DE7D1
:103C800002255BE7022559E7022557E7022555E79C
:103C9000022553E7022551E7082D00F21D81DFE8D8
:103CA00015F00C001B0114001B0111001B011B016E
:103CB0001B0109004FF4004008E0FEF775FC28B92D
:103CC0000020D9E0FEF7ACF8F9E73048626802EB73
:103CD0004203834200F20281B0EB023F00F2008116
:103CE000082D66D8DFE805F0056520653065656557
:103CF0005800FEF759FC0025070E060262685008BE
:103D00002B4616EB000B47F1000C58466146FCF7BA
:103D10007DFE03462846A3F540711D4A914200F2FC
:103D2000E1802268D360A7E0560800252B46DFF823
:103D300064B04FF0000C1BEB06004CF10001FCF7E7
:103D400065FE03462846E6E7FEF76AF80025070EFB
:103D50000602626850082B4616EB000B47F1000C78
:103D600058466146FCF752FE03462846D3E700BF9B
:103D7000F369FFEF0080004000380140004400403C
:103D800000480040004C0040005000400024F40077
:103D9000FFFC0F00000024F45008002700252B46EC
:103DA00010F5000047F10001FCF730FE03462846FD
:103DB000B1E701200023AEE7082D49D8DFE805F080
:103DC000051E2948344848483F00FEF7EDFB62686D
:103DD000530803EB4003B3FBF2F39BB20020A3F1C3
:103DE00010014FF6EF7291427ED89AB222F00F0284
:103DF000C3F3420313432268D3603DE0FEF7E6FBC2
:103E00006268530803EB4003B3FBF2F39BB200205C
:103E1000E5E76268530803F1F47303F59043B3FBDD
:103E2000F2F39BB20020DAE7FDF7FAFF626853086D
:103E300003EB4003B3FBF2F39BB20020CFE76268D1
:103E4000530803F58033B3FBF2F39BB20020C6E7BF
:103E500001200023C3E7FEF7A7FB636800EB5302D2
:103E6000B2FBF3F292B20020A2F110014FF6EF7311
:103E700099423BD82368DA60002222666266BDE878
:103E8000F088FEF7A3FB636800EB5302B2FBF3F28A
:103E900092B20020E8E763685A0802F5740202F55E
:103EA0001052B2FBF3F292B20020DDE7FDF7B8FF4B
:103EB000636800EB5302B2FBF3F292B20020D3E747
:103EC00063685A0802F50042B2FBF3F292B2002096
:103ED000CAE701200022C7E70120CDE70120CBE798
:103EE0000120C9E70120C7E70120C5E70120C3E79A
:103EF000436A13F0010F06D00268536823F40033BD
:103F0000816A0B435360436A13F0020F06D00268C4
:103F1000536823F48033C16A0B435360436A13F040
:103F2000040F06D00268536823F48023016B0B430F
:103F30005360436A13F0080F06D00268536823F4F5
:103F40000043416B0B435360436A13F0100F06D0DC
:103F50000268936823F48053816B0B439360436A38
:103F600013F0200F06D00268936823F40053C16B4E
:103F70000B439360436A13F0400F0AD00268536802
:103F800023F48013016C0B435360036CB3F5801F63
:103F90000BD0436A13F0800F06D00268536823F4F5
:103FA0000023816C0B43536070470268536823F40D
:103FB000C003416C0B435360EBE72DE9F04105462C
:103FC0000F4616469846069C2B68DB6937EA0303C2
:103FD0000CBF01230023B3421DD1B4F1FF3FF3D046
:103FE0002CB1FCF7EBFFA0EB0800A042ECD92A684B
:103FF000136823F4D07313602A68936823F00103D5
:104000009360202385F8713085F87230002385F89D
:104010007030032000E00020BDE8F0812DE9F04180
:1040200082B01E4690F87130DBB2202B4ED1044690
:104030000D46904600294ED0002A4ED090F87030A0
:10404000012B4CD0012380F87030002343672123DB
:1040500080F87130FCF7B2FF0746A4F85080A4F84E
:10406000528009E023682A781A850135B4F8523065
:10407000013B9BB2A4F85230B4F852309BB2ABB1C2
:1040800000963B46002280212046FFF796FF40BB6A
:10409000A368B3F5805FE5D12369002BE2D12268E4
:1040A00035F8023BC3F308031385DFE700963B4670
:1040B000002240212046FFF780FF034698B92022C6
:1040C00084F87120002284F8702000E00223184652
:1040D00002B0BDE8F0810123F9E70123F7E70223ED
:1040E000F5E70323F3E70323F1E730B583B0044694
:1040F00000234367FCF762FF054623681B6813F043
:10410000080F0ED123681B6813F0040F17D120236A
:1041100084F8713084F87230002084F8700003B0A5
:1041200030BD6FF07E430093034600224FF4001130
:104130002046FFF742FF0028E4D00320EFE76FF0AE
:104140007E4300932B4600224FF480012046FFF768
:1041500034FF0028DBD00320E1E778B310B5044634
:1041600090F871300BB3242384F8713022681368FF
:1041700023F0010313602046FFF7A8FC012813D0A9
:10418000636ABBB92268536823F490435360226882
:10419000936823F02A0393602268136843F00103B5
:1041A00013602046FFF7A1FF10BD80F8703002F0C9
:1041B000EDF8D8E72046FFF79BFEE3E701207047C4
:1041C00008B500F073FC012801D000F05BFD08BDCC
:1041D00000F1080343604FF0FF328260C360036167
:1041E00000230360704700230361704743684B60FE
:1041F0009A688A609A68516099600861036801331F
:104200000360704730B40D68B5F1FF3F02D000F194
:10421000080202E0026904E01A4653681C68AC42D6
:10422000FAD953684B6099608A60516008610368ED
:104230000133036030BC7047036942688168916054
:104240008268416851605A68824206D00022026149
:104250001A68013A1A601868704782685A60F5E770
:10426000074B9B6A1B6833B1054B9A6AD268D268C8
:104270005268DA627047024B4FF0FF32DA627047E1
:10428000FC01002010B50446006B00F07DFE2046C6
:1042900000F07AFE10BD2DE9F04780469946089D52
:1042A000099F0A9C266B02F18042013A06EB8206C6
:1042B00026F0070600230F2B07D8C85CE21882F807
:1042C0003400CA5C0AB10133F5E7002384F84330B7
:1042D000062D00D90625E56265644FF0000AC4F892
:1042E00048A0201DFFF77FFF04F11800FFF77BFFB8
:1042F0002461C5F10705A5616462C4F84CA084F887
:1043000050A04A464146304600F01EFC206007B1EE
:104310003C60BDE8F087000070B5002407E004EBC6
:104320008402930010481844FFF752FF0134062C12
:10433000F5D90E4C04F1BC063046FFF749FF04F1F5
:10434000D0052846FFF744FF04F11400FFF740FFB3
:1043500004F1E400FFF73CFF2046FFF739FFA662B7
:10436000C4F8F85070BD00BF2C020020FC010020F2
:1043700038B5054600F016FC264BD3F8FC20013278
:10438000C3F8FC20D3F8003173B1224BD3F80431C9
:104390008BB9204BD3F80031DA6AEB6A9A420AD81B
:1043A0001C4BC3F8005106E01A4BC3F80051D3F878
:1043B000FC30012B2AD0174CD4F808310133C4F853
:1043C0000831EB6A01229A40D4F80C110A43C4F870
:1043D0000C2104F1300003EB83039A00291D1044E3
:1043E000FFF704FF00F000FCD4F804316BB1D4F8FF
:1043F0000031DA6AEB6A9A4207D2074B4FF08052DB
:104400001A60BFF34F8FBFF36F8F38BDFFF784FF84
:10441000D1E700BFFC01002004ED00E038B517E053
:1044200000F0C0FB0D4CD4F8F030DD68281DFFF71C
:1044300003FFD4F8FC30013BC4F8FC30D4F8103151
:10444000013BC4F8103100F0CFFB2846FFF71AFFFC
:10445000024BD3F81031002BE2D138BDFC01002013
:1044600008B5FFF7DBFF064B1B6B012BF9D9054B9A
:104470004FF080521A60BFF34F8FBFF36F8FF0E79A
:10448000FC01002004ED00E070B504460E461F4B11
:10449000D3F81451D3F800010430FFF7CDFE60B912
:1044A0001A4BD3F80021D16A012202FA01F1D3F8A4
:1044B0000C2122EA0102C3F80C21B4F1FF3F12D013
:1044C0002C44124BD3F800315C60A54214D80F4D38
:1044D000A86AD5F800110431FFF794FEEB6AA342F5
:1044E00012D9EC6210E0002EEAD00848D0F8001192
:1044F0000431FFF77BFE07E0044BD3F8F800D3F854
:1045000000110431FFF77EFE70BD00BFFC010020EA
:104510002DE9F04385B00746884615469946900038
:1045200000F0B8FCF8B10646542000F0B3FC044695
:10453000A8B10663D4B10023039302940D9B0193A9
:104540000C9B00934B462A4641463846FFF7A3FE94
:104550002046FFF70DFF012005B0BDE8F08330468F
:1045600000F012FDE6E74FF0FF30F5E74FF0FF30C7
:10457000F2E7000070B5044600F014FB002C3DD0BB
:10458000261D3046FFF758FE88B9E26A02EB820327
:1045900099002D4B0B441B6B4BB9012303FA02F21C
:1045A0002949D1F80C3123EA0203C1F80C31A36A7E
:1045B0001BB104F11800FFF73FFE234BD3F808218D
:1045C0000132C3F80821D3F80031A3421AD01E4AA1
:1045D000D2F8FC30013BC2F8FC302046FFF752FE17
:1045E000FFF73EFE00F000FB174BD3F8043123B178
:1045F000154BD3F80031A34210D070BD124BD3F845
:104600000041BDE7104D314605F1E400FFF7EEFD36
:10461000D5F810310133C5F81031E3E70A4BD3F870
:10462000183143B14FF0500383F31188BFF36F8FFC
:10463000BFF34F8FFEE7054B4FF080521A60BFF378
:104640004F8FBFF36F8FD8E7FC01002004ED00E02F
:1046500010B5044600F0A6FA24B1E46A00F0C4FAEA
:10466000204610BD014BD3F80041F6E7FC010020C5
:1046700000B583B0174B01930023009380221649A5
:104680001648FFF745FF012805D0B0F1FF3F17D0CE
:1046900003B05DF804FB4FF0500383F31188BFF3C0
:1046A0006F8FBFF34F8F0E4B4FF0FF32DA62012254
:1046B000C3F804210022C3F8142100F015FBE7E73A
:1046C0004FF0500383F31188BFF36F8FBFF34F8F09
:1046D000FEE700BF1803002080870008614400083F
:1046E000FC010020034AD2F818310133C2F8183116
:1046F000704700BFFC010020014BD3F81401704744
:10470000FC010020034618B133B103F134007047B7
:10471000064BD3F80031F7E74FF0500383F31188CD
:10472000BFF36F8FBFF34F8FFEE700BFFC01002088
:104730002DE9F041404BD3F81831002B6CD13E4BA2
:10474000D3F814510135C3F81451CDB99B6A1B68D5
:1047500043B14FF0500383F31188BFF36F8FBFF362
:104760004F8FFEE7344B9A6AD3F8F8109962C3F87A
:10477000F820D3F820210132C3F82021FFF770FD83
:104780002D4BDB6AAB423DD900242B4AD2F80031D5
:10479000DB6A03EB830399000A44136B012B42D9B4
:1047A000012440E00124244B9B6A1B6863B3224B25
:1047B0009B6ADB68DE6873689D422AD306F10408B1
:1047C0004046FFF739FDB36A1BB106F11800FFF749
:1047D00033FDF36A01229A40174FD7F80C110A43B0
:1047E000C7F80C2107F1300003EB83039A00414620
:1047F0001044FFF7FBFCF26AD7F80031DB6A9A42FB
:10480000D0D2D0E70024CEE70B4B4FF0FF32DA6274
:10481000BBE7094AD362B8E7074AD2F8243101332B
:10482000C2F824310024044BD3F8283103B1012409
:104830002046BDE8F08100BFFC010020394BD3F8D1
:10484000183143B94FF0500383F31188BFF36F8FD2
:10485000BFF34F8FFEE770B500F0A4F9314BD3F8EA
:104860001821013AC3F81821D3F81831002B54D17C
:104870002C4BD3F8FC3023B9002400F0B5F92046C6
:1048800070BD0024274B5B692BB3264D2B6ADC6877
:1048900004F11800FFF7D0FC261D3046FFF7CCFCD2
:1048A000E36A01229A40D5F80C110A43C5F80C219D
:1048B00005F1300003EB83039A0031461044FFF703
:1048C00095FCE26AD5F80031DB6A9A42DAD301221C
:1048D000C5F82821D6E70CB1FFF7C2FC114BD3F87D
:1048E000244164B1FFF724FF18B10E4B0122C3F835
:1048F0002821013CF6D10B4B0022C3F82421094B9F
:10490000D3F828315BB1084B4FF080521A60BFF3E7
:104910004F8FBFF36F8F0124AFE70024ADE7002472
:10492000ABE700BFFC01002004ED00E038B550B15A
:10493000054689B94FF0500383F31188BFF36F8F99
:10494000BFF34F8FFEE74FF0500383F31188BFF39F
:104950006F8FBFF34F8FFEE71B4BD3F8183143B176
:104960004FF0500383F31188BFF36F8FBFF34F8F66
:10497000FEE70C46FFF7B6FE134BD3F814012A6886
:104980001444824218D9A2420CD82C60FFF756FF7B
:1049900038B90E4B4FF080521A60BFF34F8FBFF300
:1049A0006F8F38BDA04201D32C60EFE72C6000214F
:1049B000201AFFF769FDE9E7A24201D8A04201D21F
:1049C0002C60F4E72C60E1E7FC01002004ED00E03E
:1049D00010B5B0B104460F4BD3F8183143B14FF0C6
:1049E000500383F31188BFF36F8FBFF34F8FFEE740
:1049F000FFF778FE00212046FFF746FDFFF71EFF78
:104A000038B9054B4FF080521A60BFF34F8FBFF398
:104A10006F8F10BDFC01002004ED00E0224BD3F8A5
:104A2000183123B1204B0122C3F8282170471E4AB8
:104A30000023C2F82831D2F80C31B3FA83F3DBB289
:104A4000C3F11F0303EB830081000A44126B42B9D8
:104A50004FF0500383F31188BFF36F8FBFF34F8F75
:104A6000FEE710B4104A9900CC18A0001044446B23
:104A70006468446330321944880008300244944228
:104A80000BD0094903EB83039A000A44536BDB689C
:104A9000C1F800315DF8044B704761680248142288
:104AA00002FB03025163ECE7FC010020064BD3F844
:104AB00004313BB1044BD3F818310BB100207047DF
:104AC0000220704701207047FC01002082B00023C3
:104AD00001930D4B1B68B3F1FF3F08D04FF050031B
:104AE00083F31188BFF36F8FBFF34F8FFEE74FF053
:104AF000500383F31188BFF36F8FBFF34F8F019B78
:104B0000002BFCD002B0704700000020084800686D
:104B1000006880F308884FF0000080F3148862B6C4
:104B200061B6BFF34F8FBFF36F8F00DF00BF000090
:104B300008ED00E0DFF80C00016841F4700101604D
:104B40007047000088ED00E04FF0807340F8043CAF
:104B500021F0010140F8081C054B40F80C3C40F8DE
:104B6000202C6FF0020340F8243C4438704700BF0B
:104B7000CD4A000800000000000000000000000016
:104B8000074B19680868B0E8F04F80F30988BFF355
:104B90006F8F4FF0000080F311887047AFF30080F3
:104BA000FC0200204FF0500383F31188BFF36F8F96
:104BB000BFF34F8F0A4A136801331360012B00D0F3
:104BC0007047084B1B6813F0FF0FF9D04FF05003EC
:104BD00083F31188BFF36F8FBFF34F8FFEE700BFE2
:104BE0000000002004ED00E0094B1B6843B94FF0C2
:104BF000500383F31188BFF36F8FBFF34F8FFEE72E
:104C0000013B034A13600BB983F31188704700BF5F
:104C10000000002000000000000000000000000074
:104C2000EFF30980BFF36F8F154B1A681EF0100F5A
:104C300008BF20ED108A20E9F04F10602DE909002F
:104C40004FF0500080F31188BFF34F8FBFF36F8F89
:104C5000FFF7E4FE4FF0000080F3118809BC1968EB
:104C60000868B0E8F04F1EF0100F08BFB0EC108AD3
:104C700080F30988BFF36F8F704700BFAFF30080E8
:104C8000FC02002008B54FF0500383F31188BFF3F6
:104C90006F8FBFF34F8FFFF74BFD18B1034B4FF0F2
:104CA00080521A60002383F3118808BD04ED00E0F0
:104CB000084A0023136008490B60084B1B68084929
:104CC000A1FB03139B09013B06490B6007231360FB
:104CD000704700BF10E000E018E000E0080000208E
:104CE000D34D621014E000E0394B1A68394B9A42F8
:104CF0000DD0374B1A68384B9A4211D14FF0500300
:104D000083F31188BFF36F8FBFF34F8FFEE74FF030
:104D1000500383F31188BFF36F8FBFF34F8FFEE70C
:104D200010B582B02D4B1A78D2B20192FF221A70C0
:104D30001B78DBB28DF803309DF8033003F050038D
:104D4000274A13700723536009E0254A5368013B43
:104D500053609DF803305B00DBB28DF803309DF8A3
:104D6000033013F0800FF0D11D4B5B68032B08D08C
:104D70004FF0500383F31188BFF36F8FBFF34F8F52
:104D8000FEE71B0203F4E063154A5360019BDBB2AC
:104D9000124A1370134B1A6842F470021A601A68B0
:104DA00042F070421A60FFF783FF00240E4B1C6034
:104DB000FFF7C0FE0D4A136843F040431360FFF74E
:104DC000A5FEFFF72BFEFFF781FE204602B010BDC7
:104DD00000ED00E071C20F4170C20F4100E400E03D
:104DE0002803002020ED00E00000002034EF00E068
:104DF000114A12F0070F1BD0D11D21F00701C1F598
:104E00006A53183313440A460C490A60002048606C
:104E10001344083B23F007038B6058601860981A0E
:104E200050601360C86008614FF000434B617047E9
:104E300043F69823E8E700BF480300203003002032
:104E400010B4134B1A6882421BD359685C18844211
:104E500003D1406801445960184641684418A24291
:104E600013D10B4CA468A2420DD05268114441608A
:104E70001A6812680260984200D018605DF8044B0E
:104E800070471346DEE70460F5E70260F3E700BF12
:104E90003003002070B50446FFF724FC394B9B68B3
:104EA000BBB1384B5B691C4262D1ACB1083414F021
:104EB000070F11D024F00704083404F007035BB196
:104EC0004FF0500383F31188BFF36F8FBFF34F8F01
:104ED000FEE7FFF78DFFE4E7002C4BD0294B1B6961
:104EE000A34249D3274B1D6801E02B4615466A684B
:104EF000A24202D22A68002AF7D1224A9268AA4224
:104F00003CD01E6808362A681A606B681B1B102B81
:104F100010D9281910F0070F08D04FF0500383F371
:104F20001188BFF36F8FBFF34F8FFEE743606C6054
:104F3000FFF786FF6968134A13695B1A1361D26829
:104F4000934201D20F4AD3600E4B5B690B436B60F7
:104F500000232B60FFF772FC16F0070F10D04FF004
:104F6000500383F31188BFF36F8FBFF34F8FFEE7BA
:104F70000026EFE70026EDE70026EBE70026E9E74D
:104F8000304670BD3003002080B338B50446A0F130
:104F9000080550F8042C164949690A4208D14FF017
:104FA000500383F31188BFF36F8FBFF34F8FFEE77A
:104FB00050F8080C40B14FF0500383F31188BFF351
:104FC0006F8FBFF34F8FFEE722EA010244F8042CF3
:104FD000FFF788FB54F8041C054A13690B4413615E
:104FE0002846FFF72DFFFFF729FC38BD704700BFAB
:104FF0003003002030B583B00446069D009501F0D3
:105000001BFA024B2360204603B030BD9086000897
:1050100010B50446FFF7C6FD248AFFF7E5FD2046DC
:1050200010BD000038B52DED028B224B1B78BFF36D
:105030005B8F13F0010F2FD00421012001F092FAB1
:1050400004461D4B1868FFF7E3FF07EE900AF8EEE1
:10505000677A9FED1A7A77EEC77A9FED197A87EE15
:10506000878AD4ED008A78EE688A164B1D68FFF7B0
:1050700099FD85ED048AFFF7B7FD134B1D68FFF717
:1050800091FDC5ED048AFFF7AFFD84ED008A142180
:105090000E48FFF74BFCD4E7064800F09BFB0028C6
:1050A000CAD0FFF729FB034B5860184600F097FB66
:1050B000C2E700BFE03D0020F83F002000A002450D
:1050C00000189245E03F0020E43F0020E43D00202E
:1050D00030B583B00446069D009501F0ADF9024B52
:1050E0002360204603B030BDA086000810B52DED2A
:1050F000028B0446FFF756FD94ED048AFFF774FD1A
:10510000B0EE480ABDEC028B10BD000010B52DEDCD
:10511000048B2E4B1B78BFF35B8F13F0010F48D02D
:105120002B4B1868FFF7E2FFF0EE408A294B186816
:10513000FFF7DCFFB0EE408A274B1868FFF7D6FF79
:10514000F0EE409A254B1868FFF7D0FFB0EE409A7A
:10515000234B1868FFF7CAFFF2EE067A20EE270A03
:10516000F2EE047A69EEA79A30EE690ADFED1D7A55
:1051700029EE279A30EE490ADFED1B7A68EEA78AFE
:1051800030EE680ADFED197A28EE278A30EE480AF9
:10519000F3EE087A80EE278A154B1C68FFF702FDB4
:1051A00084ED048AFFF720FD0A211248FFF7BEFBB9
:1051B000B6E7064800F00EFB0028B1D0FFF79CFAD6
:1051C000024B5860184600F00AFBA9E7E83D0020B2
:1051D000E83F0020EC3F0020E03F0020E43F0020BB
:1051E000F43F00205C8F724100008142B81E053EF2
:1051F000F03F0020EC3D002030B583B00446069D12
:10520000009501F019F9024B2360204603B030BD30
:10521000B08600080000000070B52DED028B3E4BFB
:105220001B78BFF35B8F13F0010F05D09FED3B8A16
:1052300001254FF47A7451E0374800F0CBFA00288A
:10524000F4D0FFF759FA344B5860184600F0C7FA0B
:10525000ECE7334C2068FFF7DBFE00EB053080B253
:10526000A0F5667080B207EE900AF8EE677A17EE46
:10527000900AFBF711F922A3D3E90023FBF764F9A5
:1052800021A3D3E90023FBF75FF90022254BFBF7AD
:1052900085FA1FA3D3E90023FAF79EFFFBF766FB0D
:1052A00008EE900A38EEC88A1F4B1E68FFF77AFC9A
:1052B000C6ED048AFFF798FC1C4B1E68FFF772FCD2
:1052C00086ED048AFFF790FC2068FFF7A1FE0446F4
:1052D00005211748FFF72AFBB0EE688A104B1868C3
:1052E000FFF796FE001B00B2124B984201DA01351F
:1052F000EDB240F2DC539842ABDD013DEDB2A8E7E0
:1053000071003DCD099A863F6E861BF0F921094058
:105310005ABDC3EDD0B0E93FF03D0020CDCC4CBF2D
:10532000FC3F002000806640E83F0020EC3F00206A
:10533000F43D002024FAFFFF30B583B00446069DFB
:10534000009501F079F8024B2360204603B030BD90
:10535000C086000810B50446FFF724FC247CFFF744
:1053600043FC204610BD000038B5184B1B78BFF336
:105370005B8F13F0010F17D1144800F02BFA98B18E
:10538000FFF7BAF9114B5860184600F028FA0BE005
:1053900000240F4B1D68FFF705FC2C74FFF724FC5D
:1053A00032210C48FFF7C2FA4FF400714FF09040E1
:1053B000FCF7DAFB0546064B1868FFF7CBFF0446FF
:1053C0000028E5D0002DE4D10024E2E7F83D0020DC
:1053D000DC3F0020FC3D002030B583B00446069D34
:1053E000009501F029F8024B2360204603B030BD40
:1053F000D086000808B52DED028B284B1B78BFF333
:105400005B8F13F0010F23D1244800F0E3F9F8B1CA
:10541000FFF772F9214B5860184600F0E0F917E0E9
:105420004FF09042536983F020035361B5EEC08A78
:10543000F1EE10FA28DB1A4B5A6942F020025A6149
:105440005A6922F010025A6164211648FFF76EFA79
:10545000154B1868FFF74AFEB0EE408A134B1868E8
:10546000FFF778FF0028DBD10D4B5A6922F02002AC
:105470005A615A6922F010025A614FF09042536902
:1054800043F020035361DFE7054B5A6942F01002F5
:105490005A615A6922F020025A61D5E7003E002085
:1054A00000040048043E0020F03F0020DC3F0020C4
:1054B00070B504460C4B036079B10E460846FBF705
:1054C00025FCC5B20C2D28BF0C25681C00F06CF91A
:1054D000A0602A46314601F079FD044B1A68E2606B
:1054E0001C60204670BD00BF90870008083E002069
:1054F00038B505460C46217829B12B685B68013424
:1055000028469847F7E738BD10B504460A290BD856
:10551000DFE801F0060C11161B1B1E282C3034008E
:105520000223037100234371204610BD0823037139
:1055300000234371F8E70A23037100234371F3E763
:105540001023037100234371EEE701234371EBE75E
:1055500003685B680D21984723685B680A21204631
:105560009847E1E703689B699847DDE703685B6953
:105570009847D9E7044B1B788371D5E7024B5B78DA
:10558000037100234371CFE704000020F0B585B01C
:1055900006460C4615462A4A01AB07CA03C31A80C1
:1055A000092C14D0042C27D024B3042C39D8631E22
:1055B000DFB2FCB133685A6805EB4503023304A936
:1055C0000B4413F80C1C304690473C46EFE7336819
:1055D0005A6805EB4505AB1C04A90B4413F80C1CD9
:1055E0003046904733685B6804AA154415F80C1CD4
:1055F0003046984705B0F0BD33685A6805EB45055D
:10560000AB1C04A90B4413F80C1C304690473368BC
:105610005B68013504AA154415F80C1C3046984700
:10562000E8E733685A6805EB4503013304A90B44E6
:1056300013F80C1C30469047053CE4B2B7E700BFB6
:105640009487000870B505460C4659B1B4F57A7FC9
:105650000CD32B685B684D2128469847A4F57A74D3
:10566000A4B2F3E71149FFF743FFEFE7104EA6FBA3
:10567000043676090022F1B22846FFF787FF64213D
:1056800001FB1644A4B20B4EA6FB0436F608012219
:10569000F1B22846FFF77AFF06EB86067100611A21
:1056A0000222C9B22846FFF771FF70BDA08700082B
:1056B0001F85EB51CDCCCCCC70B58AB005460E46DB
:1056C0000379022B18D001A92B79B6FBF3F202FB68
:1056D00013630F334C1C1348C35C0B7016462146F2
:1056E000002AF1D101AB9C4218D92B685B6814F8F1
:1056F000011D28469847F5E74FF0004405E02B6868
:105700005B6830212846984764083CB13442F6D0A3
:105710002B685B68312128469847F5E728460AB090
:1057200070BD00BFD886000870B584B004460E4630
:105730004379DBB90379022B1DD001AA2179B6FB8D
:10574000F1F301FB13610F31551C1448415C1170DA
:105750001E462A46002BF1D101AB9D4208D9236891
:105760005B6815F8011D20469847F5E7FFF76AFFCB
:10577000204604B070BD802505E023685B683021B9
:10578000204698476D08002DF2D03542F5D02368A9
:105790005B68312120469847F4E700BFF88600088F
:1057A00008B5FFF777FB08BD08B5FFF773FB08BD29
:1057B0000346064A126822B1044A10680344136083
:1057C0007047024A02491160F6E700BF0C3E002014
:1057D0001C4000200078B0FA80F040097047012397
:1057E000037070477047000070B506460D4681682B
:1057F0002846FFF77DFEB068FBF788FAC4B20F2C8D
:1058000007D82B685B682021284698470134E4B20A
:10581000F5E707492846FFF76BFE06212846FFF704
:1058200073FEF06818B103681B682946984770BD7D
:10583000C887000870B506460D4681682846FFF700
:1058400057FEB068FBF762FAC4B20F2C07D82B687A
:105850005B682021284698470134E4B2F5E7074900
:105860002846FFF745FE06212846FFF74DFEF06863
:1058700018B103681B682946984770BDC88700089F
:1058800070B506460D4681682846FFF731FEB068C0
:10589000FBF73CFAC4B20F2C07D82B685B682021B9
:1058A000284698470134E4B2F5E707492846FFF750
:1058B0001FFE06212846FFF727FEF06818B103688F
:1058C0001B682946984770BDC88700082DE9F0413C
:1058D0008AB0454BDA6C42F00402DA64DA6C02F00A
:1058E00004020192019ADA6C42F08002DA64DA6C06
:1058F00002F080020292029ADA6C42F00102DA644B
:10590000DA6C02F001020392039ADA6C42F00202AE
:10591000DA64DB6C03F002030493049B0022202171
:105920004FF09040FCF727F9304F002220213846F5
:10593000FCF721F92E4E002210213046FCF71BF90E
:10594000002220213046FCF716F94FF4005305934E
:10595000284B06930024079405A93846FCF71AF84B
:1059600010230593012506950795089405A930464F
:10597000FCF710F84FF02008CDF814800695079535
:10598000089405A93046FCF705F84FF480630593A9
:105990000223069309950794089305A94FF09040B8
:1059A000FBF7F8FFCDF8148006950794089405A935
:1059B0004FF09040FBF7EEFFCDF814800695079569
:1059C000089405A93846FBF7E5FF4FF400730593EB
:1059D00006940795089405A94FF09040FBF7DAFF6D
:1059E0000AB0BDE8F08100BF001002400008004886
:1059F0000004004800002110FEE7000008B50C4834
:105A00000C4B03604FF4E133436000238360C360B9
:105A100003610C2242618361C36103624362FEF74A
:105A20009CFB00B908BD40F287110348FFF7E4FF73
:105A3000103E002000440040D087000808B51948F7
:105A4000194B8367194BC3670023C0F880300122CC
:105A5000C0F88420C0F88830C0F88C30C0F890308E
:105A6000C0F89430C0F898307830FCF789F850B915
:105A700000210F48FCF7E2F850B900210C48FCF770
:105A80000BF950B908BD40F249110A48FFF7B4FFBD
:105A90004FF4A8710748FFF7AFFF40F257110548D0
:105AA000FFF7AAFF103E002000540040EC9C90102D
:105AB000883E0020D087000808B51A481A4BC0F865
:105AC000C4304FF48273C0F8C8304FF40043C0F8BC
:105AD000CC304FF43063C0F8D0300223C0F8D4305B
